:100000000C946A000C9492000C9492000C94DB08FF
:100010000C94DB080C94DB080C9492000C94920076
:100020000C9492000C9492000C9492000C94920008
:100030000C9492000C9492000C9492000C949200F8
:100040000C9408050C9492000C9445030C947B02CC
:100050000C9492000C9492000C9492000C949200D8
:100060000C94E5080C949200BC0CE30CE30C390CE6
:100070004B0C550C5F0C690C7B0C8C0C9E0CA80C6B
:10008000B20C000000080002010000030407000099
:1000900000000000000000000000250028002B00E8
:1000A00000000000240027002A00040404040404C3
:1000B0000404020202020202030303030303010217
:1000C00004081020408001020408102001020408E6
:1000D0001020871111241FBECFEFD8E0DEBFCDBFA7
:1000E00011E0A0E0B1E0E8E3F6E302C005900D9274
:1000F000AA36B107D9F725E0AAE6B1E001C01D9202
:10010000AF38B207E1F710E0CAE6D0E004C02197AB
:10011000FE010E94E219C936D107C9F70E94DB121D
:100120000C941A1B0C94000090E0FC01E254FF4F69
:100130002491FC01E655FF4F8491882399F090E0CB
:10014000880F991FFC01E056FF4FA591B491FC0167
:10015000EA56FF4F859194918FB7F894EC91E22B7A
:10016000EC938FBF08958F929F92AF92BF92CF92E0
:10017000DF92EF92FF92CF93DF93EC018AAD811172
:1001800030C0EE8DFF8DC080D180E280F380CEA2A2
:10019000DFA2E8A6F9A6EC8DFD8D80819181A28178
:1001A000B3818AA79BA7ACA7BDA78EA89FA8A8AC20
:1001B000B9ACA5019401C701B6010E944F191816E8
:1001C00064F08AA89BA8ACA8BDA8A5019401C701AA
:1001D000B6010E94BA1687FF04C08EA29FA2A8A6ED
:1001E000B9A681E08AAFDF91CF91FF90EF90DF90C9
:1001F000CF90BF90AF909F908F900895CF92DF9255
:10020000EF92FF920F931F93CF93DF936C017A01CC
:100210008B01C0E0D0E0CE15DF0589F0D8016D91EB
:100220008D01D601ED91FC910190F081E02DC60188
:100230000995892B11F47E0102C02196ECCFC701EC
:10024000DF91CF911F910F91FF90EF90DF90CF90B2
:1002500008958BE292E00E94D20221E0892B09F4FA
:1002600020E0822F0895009769F0FC0101900020A2
:10027000E9F73197AF01481B590BBC018BE292E0C3
:100280000C94FE0080E090E008958F929F92AF92D0
:10029000BF92CF92DF92EF92FF920F931F93CF9373
:1002A000DF93CDB7DEB7A1970FB6F894DEBF0FBED0
:1002B000CDBF6C01990FEE08FF08F7FE31C0E09149
:1002C0002B02F0912C020190F081E02D6DE28BE287
:1002D00092E009958C0122273327A9012C193D09A9
:1002E0004E095F0919A2CE0181967C019AE0892E00
:1002F000912CA12CB12CCA01B901A50194010E9435
:100300001018605DF70162937F01211531054105E9
:10031000510589F7CF010E943301800F911F1DC045
:10032000A701960119A28E010F5D1F4F8AE0C82E0A
:10033000D12CE12CF12CCA01B901A70196010E9430
:100340001018605DF80162938F0121153105410598
:10035000510589F7CF010E943301A1960FB6F89499
:10036000DEBF0FBECDBFDF91CF911F910F91FF90E8
:10037000EF90DF90CF90BF90AF909F908F900895B7
:10038000CF93DF93EC0186E00E949400209711F454
:1003900060E004C0CF3FD10531F461E086E0DF9139
:1003A000CF910C940104E8E8F0E0E491E330F9F037
:1003B00048F4E130B9F0E230A1F584B5806284BD43
:1003C000C8BD34C0E730E9F0E83019F1E43049F550
:1003D00080918000806280938000D0938B00C093D6
:1003E0008A0024C084B5806884BDC7BD1FC08091C9
:1003F0008000806880938000D0938900C09388003B
:1004000015C08091B00080688093B000C093B300A5
:100410000DC08091B00080628093B000C093B400A2
:1004200005C0C038D1050CF0B8CFB2CFDF91CF9165
:100430000895682F8BE292E00C949803382F209156
:100440002A0290912902213208F049C080910602C7
:100450008111FCCF42E040930602309305023FEF4A
:10046000309304021092030220930202A9E0B2E04A
:1004700042EE51E0FA013E2F341B321718F43D9141
:100480003193F9CF1092E1012091E101990F922B64
:100490009093E1019091E001913061F41092E001BC
:1004A0009091E1019093BB009091BC0093FDF8CF37
:1004B00095EC01C095EE9093BC00909106029230AD
:1004C000E1F3909104029F3F79F080910402803221
:1004D00041F080910402803331F084E005C081E076
:1004E00003C082E001C083E01092080210922A0249
:1004F0001092070208951F920F920FB60F921124C7
:100500002F933F934F935F936F937F938F939F931B
:10051000AF93BF93EF93FF938BE292E00E94770338
:10052000FF91EF91BF91AF919F918F917F916F91CB
:100530005F914F913F912F910F900FBE0F901F90A1
:100540001895FC01538D448D252F30E0842F90E0C9
:10055000821B930B541710F0CF96089501970895BE
:10056000FC01918D828D981761F0828DDF01A80FBB
:10057000B11D5D968C91928D9F5F9F73928F90E0DD
:1005800008958FEF9FEF0895FC01918D828D98174C
:1005900031F0828DE80FF11D858D90E008958FEF89
:1005A0009FEF0895FC01918D228D892F90E0805C52
:1005B0009F4F821B91098F739927089580E090E0E7
:1005C000892B29F00E94290181110C9400000895C3
:1005D000FC01428353836483758386819781A08560
:1005E000B185480F591F6A1F7B1F42875387648755
:1005F000758708950F931F93FC0102851385248549
:100600003585401B510B620B730B77FD02C080894F
:1006100001C080E01F910F91089585ED8093BC008B
:100620008091BC0084FDFCCF1092060208950895CD
:10063000E0916F0180916E01E81730F4F0E0EE5E1A
:10064000FA4F808190E008958FEF9FEF0895909189
:100650006F0180916E01981750F4E92FF0E0EE5E83
:10066000FA4F208130E09F5F90936F0102C02FEF1F
:100670003FEFC901089580916E0190E020916F01D4
:10068000821B910908950E94151B1F920F920FB6AD
:100690000F9211242F938F939F93EF93FF93E091E9
:1006A0003B02F0913C028081E0914102F0914202D4
:1006B00082FD12C09081809144028F5F8F732091E0
:1006C0004502821751F0E0914402F0E0E55DFD4FF4
:1006D000958F8093440201C08081FF91EF919F919B
:1006E0008F912F910F900FBE0F901F901895FC01C6
:1006F000848DDF01A80FB11DA35ABF4F2C91848DAB
:1007000090E001968F739927848FA689B7892C93DF
:10071000A089B1898C9180648C93938D848D98137A
:1007200006C00288F389E02D80818F7D8083089543
:10073000EF92FF920F931F93CF93DF93EC0181E031
:10074000888F9B8D8C8D981305C0E889F9898081ED
:1007500085FD24C0F62E0B8D10E00F5F1F4F0F7329
:100760001127E02E8C8DE8120CC00FB607FCFACFD3
:10077000E889F989808185FFF5CFCE010E94770352
:10078000F1CF8B8DFE01E80FF11DE35AFF4FF08290
:100790000B8FEA89FB898081806207C0EE89FF891F
:1007A0006083E889F98980818064808381E090E0BA
:1007B000DF91CF911F910F91FF90EF900895CF930C
:1007C000DF93EC01888D8823C9F0EA89FB89808159
:1007D00085FD05C0A889B9898C9186FD0FC00FB62B
:1007E00007FCF5CF808185FFF2CFA889B9898C916C
:1007F00085FFEDCFCE010E947703E7CFDF91CF9148
:10080000089590E0FC01EE57FF4F3491FC01E25453
:10081000FF4F2491FC01E655FF4FE491EE2309F4CC
:100820003BC0332339F1333091F038F43130A9F043
:10083000323001F584B58F7D12C0373091F03830F9
:10084000A1F03430B9F4809180008F7D03C0809195
:1008500080008F77809380000DC084B58F7784BD32
:1008600009C08091B0008F7703C08091B0008F7D68
:100870008093B000F0E0EE0FFF1FEA56FF4FA59106
:10088000B4918FB7F894EC91611103C020952E2399
:1008900001C02E2B2C938FBF08953FB7F894809101
:1008A000800590918105A0918205B091830526B5C0
:1008B000A89B05C02F3F19F00196A11DB11D3FBF98
:1008C000BA2FA92F982F8827820F911DA11DB11D26
:1008D000BC01CD0142E0660F771F881F991F4A9522
:1008E000D1F708952FB7F89460917C0570917D053C
:1008F00080917E0590917F052FBF08950F931F93E0
:10090000CF93DF93EC01EE85FF85309709F00995D1
:100910000E9472046E837F83888799870A811B8176
:100920002C813D81DC01CB01800F911FA21FB31FE1
:100930008A879B87AC87BD87DF91CF911F910F91ED
:1009400008958F929F92AF92BF92CF92DF92EF92D3
:10095000FF920F931F93CF93DF93EC01EE85FF85FA
:10096000309709F009950E9472044B015C018E01D9
:100970006E012EE1C20ED11CE12CF12C89A99AA99D
:100980008E159F0524F1D80153968D919C91549713
:100990000097C1F0BFEFEB1AFB0ADC01ED91FC916F
:1009A0000280F381E02DB501A4010995882351F05F
:1009B000F80183899489DC01ED91FC910480F58133
:1009C000E02D09950E5F1F4F0C151D05B9F60E940D
:1009D00072046E837F83888799870A811B812C81AB
:1009E0003D81DC01CB01800F911FA21FB31F8A87BD
:1009F0009B87AC87BD87DF91CF911F910F91FF90AF
:100A0000EF90DF90CF90BF90AF909F908F90089520
:100A10001F920F920FB60F9211242F933F938F9333
:100A20009F93AF93BF9380917C0590917D05A0919A
:100A30007E05B0917F0530917B0523E0230F2D3794
:100A400020F40196A11DB11D05C026E8230F0296D2
:100A5000A11DB11D20937B0580937C0590937D059E
:100A6000A0937E05B0937F058091800590918105CC
:100A7000A0918205B09183050196A11DB11D8093BF
:100A8000800590938105A0938205B0938305BF9163
:100A9000AF919F918F913F912F910F900FBE0F902B
:100AA0001F9018952F923F924F925F926F927F9274
:100AB0008F929F92AF92BF92CF92DF92EF92FF926E
:100AC0000F931F93CF93DF93EC016A017B014801E1
:100AD0005901A9019801C701B6010E944F1987FF6A
:100AE0004EC0CAAADBAAECAAFDAA8EAA9FAAA8AEEB
:100AF000B9AE8AAD882309F442C02E8C3F8CF10137
:100B00004080518062807380A5019401C301B201CD
:100B10000E944F19181634F4F10180829182A2824A
:100B2000B3820DC0A7019601C301B2010E94BA169B
:100B300087FF05C0F101C082D182E282F3828EA0DC
:100B40009FA0A8A4B9A4CEA8DFA8E8ACF9ACA701DF
:100B50009601C501B4010E944F19181664F0CAA885
:100B6000DBA8ECA8FDA8A7019601C501B4010E946D
:100B7000BA1687FF04C0CEA2DFA2E8A6F9A6DF91CD
:100B8000CF911F910F91FF90EF90DF90CF90BF908A
:100B9000AF909F908F907F906F905F904F903F901D
:100BA0002F9008958F929F92AF92BF92CF92DF9233
:100BB000EF92FF92CF93DF9316161706B4F56B01F1
:100BC000EC010D2C000CEE08FF08C701B6010E94D5
:100BD000C1164B015C016EA57FA588A999A90E9449
:100BE000BF169B01AC01C501B4010E94AE184B01B8
:100BF0005C019B01AC01688979898A899B890E9483
:100C00002017688B798B8A8B9B8BA50194016C894B
:100C10007D898E899F890E94AE186C8B7D8B8E8B0F
:100C20009F8BCEA6DFA6E8AAF9AADF91CF91FF900D
:100C3000EF90DF90CF90BF90AF909F908F900895EE
:100C40002F923F924F925F926F927F928F929F92DC
:100C5000AF92BF92CF92DF92EF92FF920F931F93CA
:100C6000CF93DF93CDB7DEB760970FB6F894DEBFB2
:100C70000FBECDBFDC01DA96BC91B983B11102C0C1
:100C8000198227C1988B8F870E9472046E837F839D
:100C900088879987EF85F88982A193A1A4A1B5A13E
:100CA0004E815F8168857985481B590B6A0B7B0BE8
:100CB00086A597A5A0A9B1A9481759076A077B0778
:100CC000F8F2248D358DD9018D919D910D90BC91B7
:100CD000A02D8A839B83AC83BD8300A0F1A1E02D6E
:100CE0009C01AD0160817181828193810E944118D4
:100CF0004B015C01EF85F88922A533A544A555A5D4
:100D00006A817B818C819D810E9441186B017C01ED
:100D1000AF85B88950962D913D914D915C91539737
:100D2000C501B4010E942017EF85F88926A137A1DB
:100D300040A551A50E9442182B013C01AF85B889FE
:100D400096966D937D938D939C939997DB96BC912A
:100D5000BA87B11118C0EF85F88924853585468595
:100D60005785C701B6010E9420179B01AC01C30142
:100D7000B2010E944118AF85B88996966D937D9314
:100D80008D939C939997EF85F88946A057A060A40E
:100D900071A416A907A930AC21AC212F302F432D07
:100DA000522DC301B2010E944F1918162CF4812F45
:100DB000902FA32DB22D18C0AF85B889D2968D91F2
:100DC0009D910D90BC91A02D8B879C87AD87BE8790
:100DD0009C01AD01C301B2010E94BA1687FF0AC08F
:100DE0008B859C85AD85BE85EF85F88986A397A305
:100DF000A0A7B1A7FA85FF2379F0AF85B8891C9623
:100E00002D913D914D915C911F97C501B4010E94B8
:100E100020174B015C0103C0812C912C5401EF85FC
:100E2000F8892489358946895789C701B6010E9406
:100E300020179B01AC01AF85B88996966D917D9185
:100E40008D919C9199970E9441189B01AC01C5011D
:100E5000B4010E9442186B017C01212F302F432DD9
:100E6000522D0E944F191816A4F0EF85F88912A987
:100E700003A934A825A8212F302F432D522DB601C8
:100E8000C7010E94BA1687FD04C01C2D0D2D3E2CF3
:100E90002F2CAF85B8895E96ED91FC915F97812FDD
:100EA000902FA32DB22D80839183A283B3838A8157
:100EB0009B81AC81BD81EF85F88982A793A7A4A708
:100EC000B5A78E819F81A885B98582A393A3A4A38A
:100ED000B5A3898160960FB6F894DEBF0FBECDBF73
:100EE000DF91CF911F910F91FF90EF90DF90CF9006
:100EF000BF90AF909F908F907F906F905F904F903A
:100F00003F902F9008952F923F924F925F926F9251
:100F10007F928F929F92AF92BF92CF92DF92EF9289
:100F2000FF920F931F93CF93DF9300D000D0CDB7E4
:100F3000DEB74C01270138010D8D1E8D2F8C38A096
:100F4000DC015F965C934E935E975D967C936E9307
:100F50005C9791963C932E939097DA961C92FC01A5
:100F600012AA13AA14AA15AA80E090E0AFE7B3E48E
:100F700086AB97ABA0AFB1AF84E690E0A0E0B0E065
:100F800086A797A7A0ABB1AB318E208E20E030E0D2
:100F9000A901C301B2010E94BA1687FD83C020E0F7
:100FA00030E0A901C601B5010E94BA1687FD7AC0DA
:100FB00020E030E0A901698D7A8D8B8D9C8D0E9497
:100FC000BA1687FD6FC0D4015B961C930E935A9797
:100FD00081E00130110509F080E0F40183AF408227
:100FE000518262827382A482B582C682D782898D41
:100FF0009A8DAB8DBC8D80879187A287B3874486FD
:101000005586668677862DEC3CEC4CEC5DE3C6019C
:10101000B5010E94201769837A838B839C83F40136
:10102000608B718B828B938B2DEC3CEC4CEC5DE3F5
:10103000698D7A8D8B8D9C8D0E94AE186B017C0121
:10104000D40154966D937D938D939C9357972A94D6
:10105000232841F5A301920160E070E0CB010E94DA
:101060004118F401648775878687978729813A81BB
:101070004B815C8160E070E0CB010E944118D4019B
:1010800050966D937D938D939C935397A7019601F2
:1010900060E070E0CB010E944118F401648B758B15
:1010A000868B978B0E947204D4019E960D911D91A0
:1010B0002D913C91D197DC01CB01801B910BA20BB0
:1010C000B30BF40182A393A3A4A3B5A30F900F9035
:1010D0000F900F90DF91CF911F910F91FF90EF90A4
:1010E000DF90CF90BF90AF909F908F907F906F9048
:1010F0005F904F903F902F9008950F931F93CF9341
:10110000DF93FC0173969C012F5C3F4FDF01CD9173
:10111000DD91209741F009891A89EB0149895A89A3
:1011200004171507F9F0A217B30789F720E030E09C
:1011300041915191452B79F4220F331FFC01E20FAD
:10114000F31F748B638BFC0121A932A92F5F3F4FE2
:1011500032AB21AB07C02F5F3F4F2F30310541F736
:1011600080E001C081E0DF91CF911F910F91089540
:10117000FC0181E0808B1786168616821782108606
:101180001186F28BE18B8CE391E09183808312AA2C
:1011900011AADF015396CF01C1961D921D92A81787
:1011A000B907D9F742835383648375834287538792
:1011B0006487758708951F920F920FB60F921124BE
:1011C0000F900FBE0F901F9018951F920F920FB6A1
:1011D0000F9211242F933F934F935F936F937F93BD
:1011E0008F939F93AF93BF93EF93FF938091B90039
:1011F000887F803609F49CC068F5883209F45BC0AA
:1012000090F4803109F454C038F4882309F4F6C00E
:10121000883009F44DC0F6C0883109F44CC08032E2
:1012200009F45DC0EFC0803409F468C048F480332D
:1012300009F455C0883309F0E5C080930402D8C092
:10124000803509F44FC0883509F45DC0883409F051
:10125000D9C0D6C0883909F4C7C0A8F4883709F4C2
:1012600067C038F4883609F463C0803709F460C079
:10127000C9C0883809F4B8C0803909F45FC0803823
:1012800009F0C0C05BC0803B09F486C038F4803AE6
:1012900009F466C0883A09F47FC0B4C0803C09F400
:1012A000A7C0883C09F4A4C0883B09F48AC0AAC03E
:1012B0008091E10110C09091030280910202981781
:1012C00070F5E091030281E08E0F80930302F0E05D
:1012D000EE51FE4F80818093BB0085EC86C08093E9
:1012E00004028EC0E091030281E08E0F809303021E
:1012F0008091BB00F0E0EE51FE4F8083909103029D
:10130000809102026EC0E091030281E08E0F809313
:1013100003028091BB00F0E0EE51FE4F808380918C
:10132000050281116DC081E08093E00184EA61C013
:1013300083E08093060210927805CFCF80917805E4
:10134000803208F051C0E091780581E08E0F8093E3
:1013500078058091BB00F0E0E85AFA4F8083BDCF5A
:1013600085EC8093BC001092060280917805803253
:1013700030F4E0917805F0E0E85AFA4F108260917D
:10138000780570E0E0915605F091570588E595E005
:1013900009951092780536C084E080930602109279
:1013A000550510925405E0915205F09153050995A9
:1013B00080915405811105C081E0809354051092FD
:1013C0003205E091550581E08E0F80935505F0E0E0
:1013D000EE5CFA4F80818093BB009091550580911F
:1013E0005405981708F479CF85E88093BC000AC0AB
:1013F00085EC8093BC001092060204C01092040297
:101400000E940D03FF91EF91BF91AF919F918F913A
:101410007F916F915F914F913F912F910F900FBEF0
:101420000F901F90189540915405262F30E0240FFF
:10143000311D21323105DCF4209106022430C9F43B
:10144000FC0180E090E0861758F43091540521911A
:10145000DC01AE5CBA4FA30FB11D2C930196F3CF04
:1014600080915405680F6093540580E0089581E0F1
:10147000089582E00895089580E090E00895CF9265
:10148000DF92EF92FF920F931F93CF93DF937C0134
:10149000262F972F8A0180910702882391F0C62F6B
:1014A000D72F6E01C40ED51ECC15DD0571F06991E4
:1014B000D701ED91FC910190F081E02DC7010995D4
:1014C000F3CF642F822F0E94130AC801DF91CF91BE
:1014D0001F910F91FF90EF90DF90CF900895CF93E1
:1014E000DF931F92CDB7DEB76983209107022223D5
:1014F000D1F020912A02203240F021E030E0FC01BE
:101500003383228380E090E015C080910802E82FA9
:10151000F0E0E75FFD4F998190838F5F8093080231
:1015200080932A0205C061E0CE0101960E94130A51
:1015300081E090E00F90DF91CF9108958FE790E0E8
:101540000E9419028FE790E00E94190282E090E069
:101550000E94190282E090E00E94190281E090E06E
:101560000E94190285EA90E00E94190286EA90E042
:101570000C9419020F931F93CF93DF93CDB7DEB76F
:10158000E9970FB6F894DEBF0FBECDBF8E010F5F97
:101590001F4F89E3F80111928A95E9F78FE790E0F0
:1015A0000E9419028FE790E00E94190282E090E009
:1015B0000E94190269E38BE292E00E94980384E0A2
:1015C0008983809171018A83809170018B8388E087
:1015D0008C83809175018D83809174018E838091BD
:1015E00073018F8380917201888789E18987809157
:1015F00079018A87809178018B878AE18C87809135
:101600007B018D8780917A018E878BE18F87809116
:101610007D01888B80917C01898B8CE18A8B809104
:101620007F018B8B80917E018C8B8DE18D8B8091E6
:1016300081018E8B809180018F8B8EE1888F8091CC
:101640008301898F809182018A8F8FE18B8F8091B6
:1016500089018C8F809188018D8F83E28E8F80919C
:101660008B018F8F80918A0188A384E289A3809166
:101670008D018AA380918C018BA385E28CA380913C
:1016800085018DA3809184018EA386E28FA3809132
:10169000870188A78091860189A787E28AA7809120
:1016A00091018BA78EE08CA7809177018DA7809107
:1016B00076018EA78BE08FA780918E0188AB8CE09E
:1016C00089AB80918F018AAB8DE08BAB80919001CB
:1016D0008CAB49E350E0B8018BE292E00E94FE003F
:1016E000F8019E01265C3F4F60E070E0CB01419124
:1016F000640F711D811D911DE217F307C1F78BE285
:1017000092E00E949803E9960FB6F894DEBF0FBEF0
:10171000CDBFDF91CF911F910F9108954F925F92AE
:101720006F927F928F929F92AF92BF92CF92DF92F1
:10173000EF92FF920F931F93CF93DF938BE292E090
:101740000E94D20204970CF489C18BE292E00E94BD
:10175000B0028F37910509F081C18BE292E00E94BF
:10176000B0028F37910509F079C18BE292E00E94B7
:10177000B002E82E8BE292E00E94B002F82EEC015B
:10178000DD278BE292E00E94D2028C179D07CCF3FA
:10179000CE010E94E8198C016C01C80FD91F5C01B1
:1017A000AC16BD0699F10E947204609333027093E7
:1017B00034028093350290933602E0912B02F0912F
:1017C0002C020284F385E02D8BE292E0099597FFCD
:1017D00021C00E9472044090330250903402609005
:1017E000350270903602DC01CB0184199509A609F7
:1017F000B70940902F0250903002609031027090F3
:10180000320284159505A605B705B8F2812C912CF6
:10181000540104C0F50181935F01C2CFCC16DD06EF
:1018200041F0F60181916F01880E911CA11CB11C41
:10183000F5CF8BE292E00E94B002912C88159905B9
:1018400009F0DFC0F2E0EF12C0C0C0E0CF1508F031
:1018500005C1F801EC0FF11DE0818E2F90E0FC0135
:101860003197ED30F10508F0AEC0EC5CFF4F0C9401
:10187000E21981E08C0FF801E80FF11D808180935F
:10188000CF0182E08C0FF801E80FF11DCD5F808160
:101890008093CE01DBCF81E08C0FF801E80FF11DC2
:1018A000CE5F80818093D001D1CF81E08C0FF80191
:1018B000E80FF11DCE5F80818093D101C7CF81E019
:1018C0008C0FF801E80FF11DCE5F80818093D2016B
:1018D000BDCF81E08C0FF801E80FF11D808180936E
:1018E000D40182E08C0FF801E80FF11DCD5F8081FB
:1018F0008093D301ABCF83E090E034E03C0FFC0158
:10190000E253FE4F232F281BD801A20FB11D2C91AB
:1019100027830197A0F710C083E090E034E03C0FEC
:10192000FC01E253FE4F232F281BD801A20FB11D4B
:101930002C9123870197A0F7CB5F88CF81E08C0F94
:10194000F801E80FF11DCE5F80818093DD017ECF2D
:1019500081E08C0FF801E80FF11DCE5F808180934C
:10196000DE0174CF81E08C0FF801E80FF11DCE5F2E
:1019700080818093DF016ACF81E08C0FF801E80F4E
:10198000F11DCE5F8081843A09F060CF8FE790E04F
:101990000E9419028FE790E00E94190282E090E015
:1019A0000E94190282E090E00E94190281E090E01A
:1019B0000E94190280EA90E00E94190281EA90E0F8
:1019C0000E94190243CFCF5F41CF8FE790E00E9482
:1019D00019028FE790E00E94190282E090E00E94D5
:1019E000190282E090E00E94190260E08BE292E02E
:1019F0000E94980381E890E00E94190281E890E03B
:101A00001BC08FE790E00E9419028FE790E00E94D0
:101A1000190282E090E00E94190282E090E00E94A8
:101A2000190260E08BE292E00E94980380E890E067
:101A30000E94190280E890E0DF91CF911F910F91F1
:101A4000FF90EF90DF90CF90BF90AF909F908F90DE
:101A50007F906F905F904F900C941902DF91CF911F
:101A60001F910F91FF90EF90DF90CF90BF90AF90BC
:101A70009F908F907F906F905F904F900895CF923E
:101A8000DF92EF92FF920F931F93CF93DF931F92FA
:101A9000CDB7DEB7609114037091150380911603E2
:101AA000909117030E94201960938905862F90E07A
:101AB00069830E94C001EAE6F1E0C080D12CE12CEC
:101AC000F12C6981862F90E0A0E0B0E09C01AD018F
:101AD0002C193D094E095F09AFEFB0E00E94FD17D8
:101AE0002181022F10E020E030E0A90198012C199B
:101AF0003D094E095F090E94DE1700E711E0F80179
:101B0000278F622F70E080E090E00E94BF169B015B
:101B1000AC010E94201720E030E0A9010E94421889
:101B200020E030E0A9010E9442180E948D190E9415
:101B30005419F80161A30F90DF91CF911F910F917C
:101B4000FF90EF90DF90CF900895CF92DF92EF92C9
:101B5000FF920F931F93CF93DF931F92CDB7DEB702
:101B6000609158037091590380915A0390915B03DF
:101B70000E94201960938805862F90E069830E9457
:101B8000C001ECE6F1E0C080D12CE12CF12C6981A0
:101B9000862F90E0A0E0B0E09C01AD012C193D093A
:101BA0004E095F09AFEFB0E00E94FD172181022FBF
:101BB00010E020E030E0A90198012C193D094E0900
:101BC0005F090E94DE1700E711E0F801268F622FFF
:101BD00070E080E090E00E94BF169B01AC010E9483
:101BE000201720E030E0A9010E94421820E030E0F8
:101BF000A9010E9442180E948D190E945419F801EF
:101C000061A30F90DF91CF911F910F91FF90EF9003
:101C1000DF90CF900895CF93DF9382E491E00E940C
:101C20003301C0E7D1E08E859F850E9445018EE497
:101C300091E00E943301888999890E9445018AE5D3
:101C400091E00E9433018A899B890E94450188E6C0
:101C500091E00E94330186E691E0DF91CF910C94F0
:101C600033012F923F924F925F926F927F928F92A9
:101C70009F92AF92BF92CF92DF92EF92FF920F931B
:101C80001F93CF93DF93CDB7DEB728970FB6F894A5
:101C9000DEBF0FBECDBF0E947204C0908405D090FD
:101CA0008505E0908605F0908705DC01CB018C1955
:101CB0009D09AE09BF098093840590938505A09383
:101CC0008605B093870581E08093070288E68093BC
:101CD00029021092080210922A026BE388EC92E02B
:101CE0000E946F0A80E00E941E028091060281110C
:101CF000FCCF81E080930602809305029FEF9093D2
:101D00000402109203029DE0909302028093E1018D
:101D10008091E101806D8093E1018091E00181304B
:101D200061F41092E0018091E1018093BB00809109
:101D3000BC0083FDF8CF85EC01C085EE8093BC002C
:101D4000809106028130E1F3809103028E3018F415
:101D50008091030201C08EE0A2EEB1E022E135E005
:101D6000F9019E2F921B981718F49D919193F9CF2A
:101D700010926F0180936E018E3008F4ADC288EC32
:101D800092E00E942703182F88EC92E00E9427031C
:101D900020E030E0312F822B932B909379018093B8
:101DA000780188EC92E00E942703182F88EC92E0DB
:101DB0000E94270320E030E0312F822B932B909359
:101DC0007B0180937A0188EC92E00E942703182F10
:101DD00088EC92E00E94270320E030E0312F822B34
:101DE000932B90937D0180937C0188EC92E00E947C
:101DF0002703182F88EC92E00E94270320E030E0B0
:101E0000312F822B932B909377018093760188EC6E
:101E100092E00E942703182F88EC92E00E9427038B
:101E200020E030E0312F822B932B90937F01809321
:101E30007E0188EC92E00E942703182F88EC92E044
:101E40000E94270320E030E0312F822B932B9093C8
:101E500081018093800188EC92E00E942703182F73
:101E600088EC92E00E942703E12CF12CF12E17015F
:101E7000282A392A3092830120928201C0907E0163
:101E8000D0907F0186010F581F4F10937F01009360
:101E90007E0180918001909181019C01235B3F4FE5
:101EA0003E832D83309381012093800160917801DE
:101EB00070917901072E000C880B990B0E94C116B6
:101EC0002AE038EE4CE15AE30E9420176B017C01B6
:101ED0006093920170939301809394019093950184
:101EE00060917A0170917B01072E000C880B990B91
:101EF0000E94C1162AE038EE4CE15AE30E942017F6
:101F00002B013C0160939601709397018093980197
:101F10009093990160917C0170917D01072E000CD6
:101F2000880B990B0E94C1162AE038EE4CE15AE367
:101F30000E9420174B015C0160939A0170939B01F2
:101F400080939C0190939D01A7019601C701B60162
:101F50000E9420176B017C01A3019201C301B20111
:101F60000E9420179B01AC01C701B6010E944218D4
:101F70002B013C01A5019401C501B4010E94201769
:101F80009B01AC01C301B2010E9442180E948D194D
:101F900060939E0170939F018093A0019093A10193
:101FA0002AE038EE4CE15AE30E94AE180E94541920
:101FB0007093850160938401B801110F880B990B10
:101FC0000E94C11620E030E04AEF5BE30E94201738
:101FD0002B013C016093A2017093A3018093A401A3
:101FE0009093A501ED81FE81BF01FF0F880B990B36
:101FF0000E94C11620E030E04AEF5BE30E94201708
:102000004B015C016093A6017093A7018093A80126
:102010009093A901B101330C880B990B0E94C11652
:1020200020E030E04AEF5BE30E9420176B017C0167
:102030006093AA017093AB018093AC019093AD01C2
:10204000A3019201C301B2010E9420172B013C01A0
:10205000A5019401C501B4010E9420174B015C0148
:10206000A7019601C701B6010E94201769837A83F0
:102070008B839C83A5019401C301B2010E94421885
:1020800029813A814B815C810E9442180E948D19FE
:102090006B017C016093AE017093AF018093B0013E
:1020A0009093B10120E030E04AEF5BE30E94AE186C
:1020B0000E9454197093870160938601A7019601CD
:1020C000C701B6010E9420176D837E838F83988796
:1020D0006091D20170E080E090E00E94C1162D81F5
:1020E0003E814F8158850E9420172AE037ED43E258
:1020F0005CE30E9420176B017C016093C601709322
:10210000C7018093C8019093C9016093CA0170937D
:10211000CB018093CC019093CD012AE037ED43E2CF
:102120005CE3C301B2010E9420172AE038EE4CE1C3
:1021300051E40E94AE182B013C016093B2017093F0
:10214000B3018093B4019093B5012AE037ED43E2E7
:102150005CE3C501B4010E9420172AE038EE4CE18F
:1021600051E40E94AE186093B6017093B70180935A
:10217000B8019093B9012AE037ED43E25CE369814D
:102180007A818B819C810E9420172AE038EE4CE1F5
:1021900051E40E94AE186093BA017093BB01809322
:1021A000BC019093BD012AE037ED43E25CE36D8111
:1021B0007E818F8198850E9420172AE038EE4CE1BD
:1021C00051E40E94AE184B015C016093BE01709314
:1021D000BF018093C0019093C1012AE038EE4CE129
:1021E0005AE3C701B6010E94AE180E9454197093B9
:1021F0008B0160938A0170938D0160938C012AE0BA
:1022000038EE4CE15AE3C501B4010E94AE180E94B9
:10221000541970938901609388010091840510918D
:10222000850540925C0350925D0360925E0370925C
:102230005F03B80180E693E00E94D20580E693E058
:102240000E9420068091B6019091B701A091B8013B
:10225000B091B9018093180390931903A0931A03C6
:10226000B0931B03B8018CE193E00E94D2058CE18E
:1022700093E00E9420068091BA019091BB01A09149
:10228000BC01B091BD018093D4029093D502A0937C
:10229000D602B093D702B80188ED92E00E94D20531
:1022A00088ED92E028960FB6F894DEBF0FBECDBF42
:1022B000DF91CF911F910F91FF90EF90DF90CF9022
:1022C000BF90AF909F908F907F906F905F904F9056
:1022D0003F902F900C94200681E028960FB6F8943A
:1022E000DEBF0FBECDBFDF91CF911F910F91FF9049
:1022F000EF90DF90CF90BF90AF909F908F907F90A6
:102300006F905F904F903F902F900C941E02AF9271
:10231000BF92CF92DF92EF92FF920F931F93CF93D2
:10232000EBE2F2E01382128288EE93E0A0E0B0E0EC
:1023300084839583A683B7832EE031E031832083A5
:1023400025EC30E03587248724EC30E0378726877A
:1023500020EC30E0318B208B21EC30E0338B228B72
:1023600022EC30E0358B248B26EC30E0378B268B4B
:10237000118E128E138E148EE8ECF2E0138212820C
:1023800084839583A683B78380E291E091838083E1
:102390001F921F921F92C1E0CF931F921F921F9214
:1023A0001F92A12CB12C6501860175012EE035E04C
:1023B00048E553E06CE573E080E693E00E94830714
:1023C0001F921F921F92CF931F921F921F921F92D4
:1023D0002AE035E044E153E068E173E08CE193E00A
:1023E0000E9483071F921F921F92CF931F921F92EA
:1023F0001F921F9222E035E046E055E064ED72E066
:1024000088ED92E00E948307EFEEF4E082E391E032
:1024100091838083C08B1786168612861386148656
:1024200015861682178210861186F28BE18B128236
:10243000138214821582ECEDF4E091838083C08BCB
:1024400017861686128613861486158616821782BC
:1024500010861186F28BE18B128213821482158210
:10246000E9ECF4E091838083C08B17861686128690
:102470001386148615861682178210861186F28BB3
:10248000E18B1282138214821582E6EBF4E09183D1
:102490008083C08B1786168612861386148615864F
:1024A0001682178210861186F28BE18B12821382BC
:1024B00014821582E3EAF4E091838083C08B17864F
:1024C0001686128613861486158616821782108643
:1024D0001186F28BE18B1282138214821582E0E95D
:1024E000F4E091838083C08B17861686128613864C
:1024F000148615861682178210861186F28BE18B60
:102500001282138214821582EDE7F4E091838083B6
:10251000C08B178616861286138614861586168239
:10252000178210861186F28BE18B1282138214823D
:102530001582EAE6F4E091838083C08B17861686C5
:1025400012861386148615861682178210861186C7
:10255000F28BE18B128213821482158240E050E0EC
:10256000BA0187E394E00E94B80840E050E0BA0165
:1025700084E094E00E94B80840E050E0BA0181EDA8
:1025800093E00E94B8088DB79EB748960FB6F894AE
:102590009EBF0FBE8DBF40E050E0BA018EE993E0D0
:1025A000CF911F910F91FF90EF90DF90CF90BF9050
:1025B000AF900C94B808789484B5826084BD84B5DB
:1025C000816084BD85B5826085BD85B5816085BD2E
:1025D00080916E00816080936E00109281008091E6
:1025E000810082608093810080918100816080936E
:1025F0008100809180008160809380008091B10093
:1026000084608093B1008091B00081608093B000BD
:1026100080917A00846080937A0080917A00826051
:1026200080937A0080917A00816080937A00809113
:102630007A00806880937A001092C10090EA9093AB
:102640006C018FEF80936D0190936A0180936B0111
:1026500090939C0380939D036091D5017091D60166
:102660008091D7019091D8010E94BF1660930E050A
:1026700070930F05809310059093110560930A05E0
:1026800070930B0580930C0590930D0560930205E4
:1026900070930305809304059093050500E010E016
:1026A0002FE733E440E050E060E273E480E693E03B
:1026B0000E94520500E010E02FE733E440E050E0D4
:1026C00060E273E48CE193E00E94520500E010E0C8
:1026D0002FE733E440E050E060E273E488ED92E0FD
:1026E0000E94520580E693E00E94B3008CE193E0E3
:1026F0000E94B30088ED92E00E94B300E0913B029B
:10270000F0913C0282E08083E0913702F091380240
:102710001082E0913902F0913A028FEC808310929E
:102720004302E0913F02F091400286E08083E09115
:102730003D02F0913E02808180618083E0913D0204
:10274000F0913E02808188608083E0913D02F091AB
:102750003E02808180688083E0913D02F0913E02DC
:1027600080818F7D80838AE08093D20183E00E9404
:10277000940085E00E94940086E00E94940061E04D
:1027800083E00E94010460E085E00E9401048FEF75
:1027900090E00E94C0010E944D044B015C0194EF47
:1027A000C92EDD24D394E12CF12C0E944D04DC01D0
:1027B000CB0188199909AA09BB09883E9340A10554
:1027C000B10558F021E0C21AD108E108F10888EEFD
:1027D000880E83E0981EA11CB11CC114D104E10431
:1027E000F10419F76EE070E080E090E00E94B1160D
:1027F00010926F0110926E011092080210922A023C
:1028000010920602C1E0C09305021092E00161E05F
:1028100082E10E94010461E083E10E940104809151
:10282000B9008E7F8093B9008091B9008D7F80932D
:10283000B90088E48093B80085E48093BC0082E30B
:10284000C82ED12CE12CF12CC092CC02D092CD021A
:10285000E092CE02F092CF02C093070288E6809306
:1028600029021092080210922A026BE688EC92E08C
:102870000E946F0A60E088EC92E00E946F0A81E09B
:102880000E941E02109292011092930110929401E4
:102890001092950110929601109297011092980152
:1028A0001092990110929A0110929B0110929C0132
:1028B00010929D0110929E0110929F011092A00112
:1028C0001092A1011092A2011092A3011092A401F2
:1028D0001092A5011092A6011092A7011092A801D2
:1028E0001092A9011092AA011092AB011092AC01B2
:1028F0001092AD011092AE011092AF011092B00192
:102900001092B1011092CA011092CB011092CC0129
:102910001092CD011092C6011092C7011092C80109
:102920001092C9011092C2011092C3011092C40109
:102930001092C5011092B2011092B3011092B4012D
:102940001092B5011092B6011092B7011092B80121
:102950001092B9011092BA011092BB011092BC0101
:102960001092BD011092BE011092BF011092C001E1
:102970001092C101109271011092700110927201B7
:1029800010927301109274011092750110927901E6
:102990001092780110927B0110927A0110927D01C1
:1029A00010927C0110927F0110927E0110928101A1
:1029B000109280011092830110928201109289017D
:1029C0001092880110928D0110928C0110928B014F
:1029D00010928A0110928501109284011092910147
:1029E0001092870110928601109277011092760161
:1029F00010928E0110928F0110929001C093FF04EB
:102A0000C092F104D092F204E092F304F092F40444
:102A10008091F5049091F604A091F704B091F80428
:102A2000C296A11DB11D8093F9049093FA04A0935E
:102A3000FB04B093FC048EE89BE09093FE0480932B
:102A4000FD04C093EC0444EF51E060E070E040937B
:102A5000DE045093DF046093E0047093E1048091FE
:102A6000E2049091E304A091E404B091E5048C5059
:102A70009E4FAF4FBF4F8093E6049093E704A0931F
:102A8000E804B093E9048AEB9AE09093EB04809316
:102A9000EA04C093D90484EC99E0A0E0B0E080930C
:102AA000CB049093CC04A093CD04B093CE0480913A
:102AB000CF049091D004A091D104B091D2048C5352
:102AC000964FAF4FBF4F8093D3049093D404A093FD
:102AD000D504B093D6048EE99AE09093D8048093FD
:102AE000D704C093C6048AE491E0A0E0B0E08093EC
:102AF000B8049093B904A093BA04B093BB04809136
:102B0000BC049091BD04A091BE04B091BF04865B4B
:102B10009E4FAF4FBF4F8093C0049093C104A093CA
:102B2000C204B093C3048BE09EE09093C5048093ED
:102B3000C404C093B3044093A5045093A6046093C7
:102B4000A7047093A8048091A9049091AA04A0916D
:102B5000AB04B091AC048C509E4FAF4FBF4F8093ED
:102B6000AD049093AE04A093AF04B093B00481E39E
:102B70009EE09093130480931204C093A00444E653
:102B800050E060E070E040939204509393046093AF
:102B90009404709395048091960490919704A09169
:102BA0009804B09199048C599F4FAF4FBF4F8093B9
:102BB0009A0490939B04A0939C04B0939D0485EA8F
:102BC0009DE090939F0480939E04C0938D04409356
:102BD0007F045093800460938104709382048091F9
:102BE000830490918404A0918504B09186048C594B
:102BF0009F4FAF4FBF4F8093870490938804A0935B
:102C00008904B0938A048FE39DE090938C048093B1
:102C10008B04C093140463EA74E084E094E00E949F
:102C20007D08C093470460E974E087E394E00E9464
:102C30007D086DE774E087E394E00E947D086AE612
:102C400074E087E394E00E947D08C093E1036FEE97
:102C500074E081ED93E00E947D086CED74E081EDFD
:102C600093E00E947D0869EC74E081ED93E00E949E
:102C70007D08C093AE0361ED73E08EE993E00E949E
:102C80007D0867E374E08EE993E00E947D0864E0CC
:102C900074E08EE993E00E947D080E947204AB010B
:102CA000BC018EE993E00E94FA02882321F08EE9AC
:102CB00093E00E94A1040E94DE02EFCF8F929F92C8
:102CC000AF92BF92CF92DF92EF92FF92CF93DF93BA
:102CD000EC01688179818A819B816115710581058B
:102CE000910521F464E279ED8BE597E02DE133EF76
:102CF00041E050E00E94DE1749015A019B01AC01FE
:102D0000A7EAB1E40E94FD176B017C01ACEEB4EFC1
:102D1000A50194010E940B18DC01CB018C0D9D1DB7
:102D2000AE1DBF1DB7FF03C00197A109B04888833E
:102D30009983AA83BB83BC01CD019F77DF91CF919B
:102D4000FF90EF90DF90CF90BF90AF909F908F90CB
:102D500008950E945E16089580E091E00E945E163C
:102D60000895609300017093010180930201909394
:102D7000030108950E94FC1608F481E00895E89488
:102D800009C097FB3EF490958095709561957F4FB3
:102D90008F4F9F4F9923A9F0F92F96E9BB27939561
:102DA000F695879577956795B795F111F8CFFAF471
:102DB000BB0F11F460FF1BC06F5F7F4F8F4F9F4FA2
:102DC00016C0882311F096E911C0772321F09EE800
:102DD000872F762F05C0662371F096E8862F70E066
:102DE00060E02AF09A95660F771F881FDAF7880F40
:102DF0009695879597F90895990F0008550FAA0B96
:102E0000E0E8FEEF16161706E807F907C0F01216FD
:102E10001306E407F50798F0621B730B840B950B00
:102E200039F40A2661F0232B242B252B21F4089555
:102E30000A2609F4A140A6958FEF811D811D0895F2
:102E40000E9433170C94A4170E94961738F00E9422
:102E50009D1720F0952311F00C948D170C94931767
:102E600011240C94D8170E94B51770F3959FC1F3E5
:102E7000950F50E0551F629FF001729FBB27F00D28
:102E8000B11D639FAA27F00DB11DAA1F649F66277D
:102E9000B00DA11D661F829F2227B00DA11D621FCC
:102EA000739FB00DA11D621F839FA00D611D221F86
:102EB000749F3327A00D611D231F849F600D211D6A
:102EC000822F762F6A2F11249F5750409AF0F1F0ED
:102ED00088234AF0EE0FFF1FBB1F661F771F881F56
:102EE00091505040A9F79E3F510580F00C948D17EA
:102EF0000C94D8175F3FE4F3983ED4F3869577950A
:102F00006795B795F795E7959F5FC1F7FE2B880FFB
:102F1000911D9695879597F9089597F99F6780E891
:102F200070E060E008959FEF80EC089500240A941B
:102F30001616170618060906089500240A94121694
:102F40001306140605060895092E0394000C11F4C7
:102F5000882352F0BB0F40F4BF2B11F460FF04C074
:102F60006F5F7F4F8F4F9F4F089557FD9058440FCD
:102F7000551F59F05F3F71F04795880F97FB991FD8
:102F800061F09F3F79F08795089512161306140695
:102F9000551FF2CF4695F1DF08C016161706180622
:102FA000991FF1CF86957105610508940895E894FD
:102FB000BB2766277727CB0197F90895052E97FB46
:102FC0001EF400940E94F51757FD07D00E941018B8
:102FD00007FC03D04EF40C94F517509540953095AE
:102FE00021953F4F4F4F5F4F089590958095709575
:102FF00061957F4F8F4F9F4F08950E943218A59F74
:10300000900DB49F900DA49F800D911D11240895E3
:10301000B7FF0C94FD170E94FD17821B930B0895B8
:10302000A1E21A2EAA1BBB1BFD010DC0AA1FBB1FCC
:10303000EE1FFF1FA217B307E407F50720F0A21B3E
:10304000B30BE40BF50B661F771F881F991F1A94AB
:1030500069F760957095809590959B01AC01BD01D5
:10306000CF010895A29FB001B39FC001A39F700D2F
:10307000811D1124911DB29F700D811D1124911D80
:1030800008955058BB27AA270E9459180C94A417DA
:103090000E94961738F00E949D1720F039F49F3F48
:1030A00019F426F40C9493170EF4E095E7FB0C94B6
:1030B0008D17E92F0E94B51758F3BA1762077307E7
:1030C0008407950720F079F4A6F50C94D7170EF431
:1030D000E0950B2EBA2FA02D0B01B90190010C0128
:1030E000CA01A0011124FF27591B99F0593F50F440
:1030F000503E68F11A16F040A22F232F342F442798
:10310000585FF3CF469537952795A795F04053958F
:10311000C9F77EF41F16BA0B620B730B840BBAF05F
:103120009150A1F0FF0FBB1F661F771F881FC2F7CA
:103130000EC0BA0F621F731F841F48F487957795DE
:103140006795B795F7959E3F08F0B0CF9395880F98
:1031500008F09927EE0F9795879508950E94C21859
:103160000C94A4170E949D1758F00E94961740F0E7
:1031700029F45F3F29F00C948D1751110C94D81746
:103180000C9493170E94B51768F39923B1F3552354
:1031900091F3951B550BBB27AA276217730784076A
:1031A00038F09F5F5F4F220F331F441FAA1FA9F300
:1031B00035D00E2E3AF0E0E832D091505040E695EE
:1031C000001CCAF72BD0FE2F29D0660F771F881F4F
:1031D000BB1F261737074807AB07B0E809F0BB0B42
:1031E000802DBF01FF2793585F4F3AF09E3F510556
:1031F00078F00C948D170C94D8175F3FE4F3983E49
:10320000D4F3869577956795B795F7959F5FC9F73E
:10321000880F911D9695879597F90895E1E0660FBF
:10322000771F881FBB1F621773078407BA0720F038
:10323000621B730B840BBA0BEE1F88F7E0950895A1
:103240000E94BD1788F09F5798F0B92F9927B75162
:10325000B0F0E1F0660F771F881F991F1AF0BA953A
:10326000C9F714C0B13091F00E94D717B1E00895AA
:103270000C94D717672F782F8827B85F39F0B93F9C
:10328000CCF3869577956795B395D9F73EF49095ED
:103290008095709561957F4F8F4F9F4F08950E9445
:1032A000FC1608F48FEF08950E94BD1758F19E5741
:1032B00060F19851A0F0E9F0983020F5092E992797
:1032C000660F771F881F991F0A94D1F712C0062E28
:1032D000672F782F8827985F11F4000C07C0993F5B
:1032E000B4F38695779567959395D9F7611D711D10
:1032F000811D3EF490958095709561957F4F8F4F1D
:103300009F4F089568940C94D8170C94D71719F40C
:1033100016F40C9493170C94CD190E94BD17B8F3B2
:103320009923C9F3B6F39F57550B87FF0E94DB190A
:103330000024A0E640EA900180585695979528F41D
:10334000805C660F771F881F20F026173707480715
:1033500030F4621B730B840B202931294A2BA6956C
:1033600017940794202531254A2758F7660F771FB1
:10337000881F20F026173707480730F4620B730BBD
:10338000840B200D311D411DA09581F7B901842FBB
:103390009158880F9695879508959F3F31F09150E9
:1033A00020F4879577956795B795880F911D969529
:1033B000879597F9089591505040660F771F881FA1
:1033C000D2F70895EE0FFF1F0590F491E02D0994B8
:1033D000CF93DF938230910510F482E090E0E0918A
:1033E0008D05F0918E0520E030E0C0E0D0E0309710
:1033F00011F14081518148175907C0F0481759070A
:1034000061F482819381209719F09B838A832BC07A
:1034100090938E0580938D0526C02115310519F0F6
:103420004217530718F49A01BE01DF01EF01028031
:10343000F381E02DDCCF2115310509F1281B390B73
:103440002430310590F412968D919C91139761155B
:10345000710521F0FB019383828304C090938E0554
:1034600080938D05FD01329644C0FD01E20FF31FEC
:1034700081939193225031092D933C933AC020912E
:103480008B0530918C05232B41F42091060130915E
:10349000070130938C0520938B0520910401309116
:1034A00005012115310541F42DB73EB740910801C2
:1034B00050910901241B350BE0918B05F0918C058F
:1034C000E217F307A0F42E1B3F0B2817390778F0FB
:1034D000AC014E5F5F4F2417350748F04E0F5F1F5A
:1034E00050938C0540938B058193919302C0E0E04B
:1034F000F0E0CF01DF91CF9108950F931F93CF9309
:10350000DF93009709F48CC0FC013297138212827A
:1035100000918D0510918E050115110581F4208112
:103520003181820F931F20918B0530918C052817D4
:10353000390779F5F0938C05E0938B0571C0D801BC
:1035400040E050E0AE17BF0750F412962D913C9129
:103550001397AD012115310509F1D901F3CF9D0173
:10356000DA013383228360817181860F971F82176E
:10357000930769F4EC0128813981260F371F2E5FEC
:103580003F4F318320838A819B8193838283452BA4
:1035900029F4F0938E05E0938D0542C01396FC93B9
:1035A000EE931297ED01499159919E01240F351F19
:1035B000E217F30771F480819181840F951F0296C1
:1035C00011969C938E938281938113969C938E93F4
:1035D0001297E0E0F0E0D80112968D919C9113973C
:1035E000009719F0F8018C01F6CF8D919C9198010C
:1035F0002E5F3F4F820F931F20918B0530918C05DA
:103600002817390769F4309729F410928E05109223
:103610008D0502C01382128210938C0500938B05D6
:10362000DF91CF911F910F91089581E090E0F89480
:083630000C941A1BF894FFCF63
:103638000100000000008F058000000000009803D2
:10364800FE00A102DF03D202B002C40200000000A3
:103658006F0A3F0A3C0A17033B03270318030000BD
:103668000000E802FA027E0400000000E802FA0204
:10367800A104207C207841537261772D3E00207C84
:10368800207941537261772D3E00207C207A415386
:0A3698007261772D3E000D0A00005C
:107E0000112484B714BE81FFF0D085E080938100F7
:107E100082E08093C00088E18093C10086E0809377
:107E2000C20080E18093C4008EE0C9D0259A86E02C
:107E300020E33CEF91E0309385002093840096BBD3
:107E4000B09BFECF1D9AA8958150A9F7CC24DD24C4
:107E500088248394B5E0AB2EA1E19A2EF3E0BF2EE7
:107E6000A2D0813461F49FD0082FAFD0023811F036
:107E7000013811F484E001C083E08DD089C08234E0
:107E800011F484E103C0853419F485E0A6D080C0E4
:107E9000853579F488D0E82EFF2485D0082F10E0AE
:107EA000102F00270E291F29000F111F8ED06801E7
:107EB0006FC0863521F484E090D080E0DECF843638
:107EC00009F040C070D06FD0082F6DD080E0C81688
:107ED00080E7D80618F4F601B7BEE895C0E0D1E017
:107EE00062D089930C17E1F7F0E0CF16F0E7DF06D8
:107EF00018F0F601B7BEE89568D007B600FCFDCFD4
:107F0000A601A0E0B1E02C9130E011968C91119780
:107F100090E0982F8827822B932B1296FA010C0160
:107F200087BEE89511244E5F5F4FF1E0A038BF0790
:107F300051F7F601A7BEE89507B600FCFDCF97BE46
:107F4000E89526C08437B1F42ED02DD0F82E2BD052
:107F50003CD0F601EF2C8F010F5F1F4F84911BD097
:107F6000EA94F801C1F70894C11CD11CFA94CF0C13
:107F7000D11C0EC0853739F428D08EE10CD085E9AC
:107F80000AD08FE07ACF813511F488E018D01DD067
:107F900080E101D065CF982F8091C00085FFFCCF94
:107FA0009093C60008958091C00087FFFCCF809118
:107FB000C00084FD01C0A8958091C6000895E0E648
:107FC000F0E098E1908380830895EDDF803219F02E
:107FD00088E0F5DFFFCF84E1DECF1F93182FE3DFCA
:107FE0001150E9F7F2DF1F91089580E0E8DFEE27F6
:047FF000FF270994CA
:027FFE00040479
:0400000300007E007B
:00000001FF