:100000000C946B000C9493000C9493000C94690C6A
:100010000C94690C0C94690C0C9493000C94930050
:100020000C9493000C9493000C9493000C94930004
:100030000C9493000C9493000C9493000C949300F4
:100040000C944C0A0C9493000C94E90E0C94C30E7F
:100050000C9493000C9493000C9493000C949300D4
:100060000C94730C0C949300B603DD03DD0333038F
:1000700045034F0359036303750386039803A203E3
:10008000AC030000000800020100000304070000A8
:1000900000000000000000000000250028002B00E8
:1000A00000000000240027002A00040404040404C3
:1000B0000404020202020202030303030303010217
:1000C00004081020408001020408102001020408E6
:1000D0001020C415EA1111241FBECFEFD8E0DEBFF7
:1000E000CDBF11E0A0E0B1E0E4E2FBE302C0059087
:1000F0000D92A037B107D9F726E0A0E7B1E001C023
:100100001D92AD32B207E1F710E0CAE6D0E004C0BC
:100110002197FE010E94731BC936D107C9F70E94BF
:10012000F0110C94851D0C9400008F929F92AF9259
:10013000BF92CF92DF92EF92FF92CF93DF9316168A
:100140001706B4F56B01EC010D2C000CEE08FF084E
:10015000C701B6010E941B184B015C016EA57FA56B
:1001600088A999A90E9419189B01AC01C501B40185
:100170000E943F1A4B015C019B01AC01688979899F
:100180008A899B890E947A18688B798B8A8B9B8BD2
:10019000A50194016C897D898E899F890E943F1AEF
:1001A0006C8B7D8B8E8B9F8BCEA6DFA6E8AAF9AADF
:1001B000DF91CF91FF90EF90DF90CF90BF90AF9005
:1001C0009F908F900895FC014283538364837583CD
:1001D00086819781A085B185480F591F6A1F7B1FB3
:1001E000428753876487758708950F931F93FC0197
:1001F0000285138524853585401B510B620B730BDB
:1002000077FD02C0808901C080E01F910F910895A1
:1002100085ED8093BC008091BC0084FDFCCF1092E2
:10022000870208954091B901262F30E0240F311D37
:1002300021323105DCF4209187022430C9F4FC011D
:1002400080E090E0861758F43091B9012191DC01EB
:10025000A956BE4FA30FB11D2C930196F3CF8091E9
:10026000B901680F6093B90180E0089581E00895B5
:1002700082E008950895E091EE018091ED01E81784
:1002800030F4F0E0E958FE4F808190E008958FEF60
:100290009FEF08959091EE018091ED01981750F431
:1002A000E92FF0E0E958FE4F208130E09F5F909306
:1002B000EE0102C02FEF3FEFC90108958091ED01DB
:1002C00090E02091EE01821B91090895CF92DF9278
:1002D000EF92FF920F931F93CF93DF937C01262F12
:1002E000972F8A0180918802882391F0C62FD72FFB
:1002F0006E01C40ED51ECC15DD0571F06991D701D4
:10030000ED91FC910190F081E02DC7010995F3CFAB
:10031000642F822F0E941201C801DF91CF911F919B
:100320000F91FF90EF90DF90CF900895CF93DF93E0
:100330001F92CDB7DEB76983209188022223D1F0C6
:100340002091AB02203240F021E030E0FC01338309
:10035000228380E090E015C080918902E82FF0E0D0
:10036000E657FD4F998190838F5F80938902809338
:10037000AB0205C061E0CE0101960E94120181E04E
:1003800090E00F90DF91CF910895089580E090E084
:1003900008958FE790E00E94AE108FE790E00E94F2
:1003A000AE1082E090E00E94AE1082E090E00E94E9
:1003B000AE1081E090E00E94AE1085EA90E00E94CD
:1003C000AE1086EA90E00C94AE100F931F93CF937B
:1003D000DF93CDB7DEB7E9970FB6F894DEBF0FBE57
:1003E000CDBF8E010F5F1F4F89E3F80111928A95EF
:1003F000E9F78FE790E00E94AE108FE790E00E944F
:10040000AE1082E090E00E94AE1069E388EB92E0CB
:100410000E944E0E84E089838091F0018A8380914E
:10042000EF018B8388E08C838091F4018D83809130
:10043000F3018E838091F2018F838091F10188878F
:1004400089E189878091F8018A878091F7018B87FC
:100450008AE18C878091FA018D878091F9018E87DE
:100460008BE18F878091FC01888B8091FB01898BC8
:100470008CE18A8B8091FE018B8B8091FD018C8BAE
:100480008DE18D8B809100028E8B8091FF018F8B8F
:100490008EE1888F80910202898F809101028A8F7C
:1004A0008FE18B8F809108028C8F809107028D8F56
:1004B00083E28E8F80910A028F8F8091090288A338
:1004C00084E289A380910C028AA380910B028BA302
:1004D00085E28CA3809104028DA3809103028EA3F8
:1004E00086E28FA38091060288A78091050289A7E2
:1004F00087E28AA7809110028BA78EE08CA780915B
:10050000F6018DA78091F5018EA78BE08FA78091D2
:100510000D0288AB8CE089AB80910E028AAB8DE036
:100520008BAB80910F028CAB49E350E0B80188EBB4
:1005300092E00E948C0FF8019E01265C3F4F60E024
:1005400070E0CB014191640F711D811D911DE21777
:10055000F307C1F788EB92E00E944E0EE9960FB6C2
:10056000F894DEBF0FBECDBFDF91CF911F910F91E9
:1005700008958F929F92AF92BF92CF92DF92EF92A7
:10058000FF920F931F93CF93DF9388EB92E00E942B
:10059000170E04970CF458C188EB92E00E94F50DF9
:1005A0008F37910509F050C188EB92E00E94F50D5C
:1005B0008F37910509F048C188EB92E00E94F50D54
:1005C000E82E88EB92E00E94F50DF82EEC01DD2775
:1005D00088EB92E00E94170E8C179D07CCF3CE019A
:1005E0000E94791B8C016C01C80FD91F5C01AC16ED
:1005F000BD0631F088EB92E00E94BA1197FF04C06B
:10060000812C912C540104C0F50181935F01EFCF3F
:10061000CC16DD0641F0F60181916F01880E911C28
:10062000A11CB11CF5CF88EB92E00E94F50D912C36
:100630008815990509F0DFC0F2E0EF12C0C0C0E0F4
:10064000CF1508F001C1F801EC0FF11DE0818E2FEC
:1006500090E0FC013197ED30F10508F0AEC0EC5CA4
:10066000FF4F0C94731B81E08C0FF801E80FF11D14
:10067000808180934E0282E08C0FF801E80FF11D1B
:10068000CD5F808180934D02DBCF81E08C0FF8013C
:10069000E80FF11DCE5F808180934F02D1CF81E0C2
:1006A0008C0FF801E80FF11DCE5F8081809350021E
:1006B000C7CF81E08C0FF801E80FF11DCE5F80817C
:1006C00080935102BDCF81E08C0FF801E80FF11D3E
:1006D00080818093530282E08C0FF801E80FF11DB6
:1006E000CD5F808180935202ABCF83E090E034E015
:1006F0003C0FFC01E35BFD4F232F281BD801A20F09
:10070000B11D2C9127830197A0F710C083E090E0E2
:1007100034E03C0FFC01E35BFD4F232F281BD80185
:10072000A20FB11D2C9123870197A0F7CB5F88CF33
:1007300081E08C0FF801E80FF11DCE5F808180937E
:100740005C027ECF81E08C0FF801E80FF11DCE5FD7
:10075000808180935D0274CF81E08C0FF801E80FF7
:10076000F11DCE5F808180935E026ACF81E08C0FA5
:10077000F801E80FF11DCE5F8081843A09F060CF67
:100780008FE790E00E94AE108FE790E00E94AE10DD
:1007900082E090E00E94AE1082E090E00E94AE10F5
:1007A00081E090E00E94AE1080EA90E00E94AE10DE
:1007B00081EA90E00E94AE1043CFCF5F41CF8FE738
:1007C00090E00E94AE108FE790E00E94AE1082E0B1
:1007D00090E00E94AE1082E090E00E94AE1060E0D7
:1007E00088EB92E00E944E0E81E890E00E94AE10ED
:1007F00081E890E01BC08FE790E00E94AE108FE789
:1008000090E00E94AE1082E090E00E94AE1082E084
:1008100090E00E94AE1060E088EB92E00E944E0EE5
:1008200080E890E00E94AE1080E890E0DF91CF91E8
:100830001F910F91FF90EF90DF90CF90BF90AF90FE
:100840009F908F900C94AE10DF91CF911F910F91DC
:10085000FF90EF90DF90CF90BF90AF909F908F90E0
:100860000895CF92DF92EF92FF920F931F93CF9351
:10087000DF931F92CDB7DEB7609185057091860535
:1008800080918705909188050E94B11A6093750147
:10089000862F90E069830E945510E9EEF1E0C08058
:1008A000D12CE12CF12C6981862F90E0A0E0B0E002
:1008B0009C01AD012C193D094E095F09AFEFB0E075
:1008C0000E9457192181022F10E020E030E0A90199
:1008D00098012C193D094E095F090E9438190FEE45
:1008E00011E0F801278F622F70E080E090E00E9415
:1008F00019189B01AC010E947A1820E030E0A90190
:100900000E94D31920E030E0A9010E94D3190E946F
:100910001E1B0E94E51AF80161A30F90DF91CF9191
:100920001F910F91FF90EF90DF90CF900895CF929D
:10093000DF92EF92FF920F931F93CF93DF931F925B
:10094000CDB7DEB76091D9057091DA058091DB05EE
:100950009091DC050E94B11A60937401862F90E09B
:1009600069830E945510EBEEF1E0C080D12CE12CA0
:10097000F12C6981862F90E0A0E0B0E09C01AD01F0
:100980002C193D094E095F09AFEFB0E00E945719DD
:100990002181022F10E020E030E0A90198012C19FC
:1009A0003D094E095F090E9438190FEE11E0F80168
:1009B000268F622F70E080E090E00E9419189B0162
:1009C000AC010E947A1820E030E0A9010E94D319FE
:1009D00020E030E0A9010E94D3190E941E1B0E9452
:1009E000E51AF80161A30F90DF91CF911F910F914C
:1009F000FF90EF90DF90CF9008952FB7F89460911B
:100A0000E1017091E2018091E3019091E4012FBF37
:100A100008952F923F924F925F926F927F928F92A2
:100A20009F92AF92BF92CF92DF92EF92FF920F937D
:100A30001F93CF93DF93CDB7DEB760970FB6F894CF
:100A4000DEBF0FBECDBFDC01DA96BC91B983B11118
:100A500002C0198227C1988B8F870E94FD046E8384
:100A60007F8388879987EF85F88982A193A1A4A1C4
:100A7000B5A14E815F8168857985481B590B6A0B4A
:100A80007B0B86A597A5A0A9B1A9481759076A07A6
:100A90007B07F8F2248D358DD9018D919D910D90B4
:100AA000BC91A02D8A839B83AC83BD8300A0F1A160
:100AB000E02D9C01AD0160817181828193810E9452
:100AC000D2194B015C01EF85F88922A533A544A515
:100AD00055A56A817B818C819D810E94D2196B0111
:100AE0007C01AF85B88950962D913D914D915C91D7
:100AF0005397C501B4010E947A18EF85F88926A1A1
:100B000037A140A551A50E94D3192B013C01AF8507
:100B1000B88996966D937D938D939C939997DB9668
:100B2000BC91BA87B11118C0EF85F8892485358545
:100B300046855785C701B6010E947A189B01AC0112
:100B4000C301B2010E94D219AF85B88996966D9300
:100B50007D938D939C939997EF85F88946A057A034
:100B600060A471A416A907A930AC21AC212F302FA5
:100B7000432D522DC301B2010E94E01A18162CF425
:100B8000812F902FA32DB22D18C0AF85B889D29692
:100B90008D919D910D90BC91A02D8B879C87AD87E9
:100BA000BE879C01AD01C301B2010E94141887FFEA
:100BB0000AC08B859C85AD85BE85EF85F88986A3A7
:100BC00097A3A0A7B1A7FA85FF2379F0AF85B889CD
:100BD0001C962D913D914D915C911F97C501B401DB
:100BE0000E947A184B015C0103C0812C912C5401A6
:100BF000EF85F8892489358946895789C701B60167
:100C00000E947A189B01AC01AF85B88996966D91C8
:100C10007D918D919C9199970E94D2199B01AC0175
:100C2000C501B4010E94D3196B017C01212F302F23
:100C3000432D522D0E94E01A1816A4F0EF85F88972
:100C400012A903A934A825A8212F302F432D522DF6
:100C5000B601C7010E94141887FD04C01C2D0D2D7C
:100C60003E2C2F2CAF85B8895E96ED91FC915F9755
:100C7000812F902FA32DB22D80839183A283B383E4
:100C80008A819B81AC81BD81EF85F88982A793A77A
:100C9000A4A7B5A78E819F81A885B98582A393A3B8
:100CA000A4A3B5A3898160960FB6F894DEBF0FBEEA
:100CB000CDBFDF91CF911F910F91FF90EF90DF900B
:100CC000CF90BF90AF909F908F907F906F905F90EC
:100CD0004F903F902F9008950F931F93CF93DF93E2
:100CE000EC01EE85FF85309709F009950E94FD041F
:100CF0006E837F83888799870A811B812C813D8140
:100D0000DC01CB01800F911FA21FB31F8A879B8735
:100D1000AC87BD87DF91CF911F910F9108958F927E
:100D20009F92AF92BF92CF92DF92EF92FF920F937A
:100D30001F93CF93DF93EC01EE85FF85309709F089
:100D400009950E94FD044B015C018E016E012EE1AC
:100D5000C20ED11CE12CF12C89A99AA98E159F05F0
:100D600024F1D80153968D919C9154970097C1F02E
:100D7000BFEFEB1AFB0ADC01ED91FC910280F381DD
:100D8000E02DB501A4010995882351F0F80183896C
:100D90009489DC01ED91FC910480F581E02D0995A9
:100DA0000E5F1F4F0C151D05B9F60E94FD046E83E2
:100DB0007F83888799870A811B812C813D81DC0193
:100DC000CB01800F911FA21FB31F8A879B87AC871F
:100DD000BD87DF91CF911F910F91FF90EF90DF9032
:100DE000CF90BF90AF909F908F9008952F923F9299
:100DF0004F925F926F927F928F929F92AF92BF922B
:100E0000CF92DF92EF92FF920F931F93CF93DF93D6
:100E1000CDB7DEB728970FB6F894DEBF0FBECDBFB3
:100E20000E94FD04C0907001D0907101E0907201A9
:100E3000F0907301DC01CB018C199D09AE09BF094B
:100E40008093700190937101A0937201B09373012C
:100E500081E08093880288E68093AA02109289023A
:100E60001092AB026BE38CEA92E00E94960180E064
:100E70000E943611809187028111FCCF81E080931E
:100E80008702809386029FEF9093850210928402DE
:100E90009DE0909383028093620280916202806D54
:100EA0008093620280916102813061F4109261024C
:100EB000809162028093BB008091BC0083FDF8CFDB
:100EC00085EC01C085EE8093BC0080918702813063
:100ED000E1F3809184028E3018F48091840201C085
:100EE0008EE0A3E6B2E027E731E0F9019E2F921BE6
:100EF000981718F49D919193F9CF1092EE01809379
:100F0000ED018E3008F4ADC28CEA92E00E944A01F5
:100F1000182F8CEA92E00E944A0120E030E0312F45
:100F2000822B932B9093F8018093F7018CEA92E047
:100F30000E944A01182F8CEA92E00E944A0120E0A8
:100F400030E0312F822B932B9093FA018093F9019B
:100F50008CEA92E00E944A01182F8CEA92E00E94EB
:100F60004A0120E030E0312F822B932B9093FC013B
:100F70008093FB018CEA92E00E944A01182F8CEAD0
:100F800092E00E944A0120E030E0312F822B932B27
:100F90009093F6018093F5018CEA92E00E944A0159
:100FA000182F8CEA92E00E944A0120E030E0312FB5
:100FB000822B932B9093FE018093FD018CEA92E0AB
:100FC0000E944A01182F8CEA92E00E944A0120E018
:100FD00030E0312F822B932B909300028093FF01FE
:100FE0008CEA92E00E944A01182F8CEA92E00E945B
:100FF0004A01E12CF12CF12E1701282A392A3092CE
:10100000020220920102C090FD01D090FE018601F3
:101010000F581F4F1093FE010093FD018091FF01B7
:10102000909100029C01235B3F4F3E832D833093C0
:1010300000022093FF016091F7017091F801072EE3
:10104000000C880B990B0E941B182AE038EE4CE12B
:101050005AE30E947A186B017C016093110270932D
:10106000120280931302909314026091F90170911F
:10107000FA01072E000C880B990B0E941B182AE01E
:1010800038EE4CE15AE30E947A182B013C01609340
:1010900015027093160280931702909318026091C4
:1010A000FB017091FC01072E000C880B990B0E942C
:1010B0001B182AE038EE4CE15AE30E947A184B01E3
:1010C0005C016093190270931A0280931B02909343
:1010D0001C02A7019601C701B6010E947A186B0194
:1010E0007C01A3019201C301B2010E947A189B0105
:1010F000AC01C701B6010E94D3192B013C01A50127
:101100009401C501B4010E947A189B01AC01C3018E
:10111000B2010E94D3190E941E1B60931D0270939E
:101120001E0280931F02909320022AE038EE4CE1C9
:101130005AE30E943F1A0E94E51A709304026093DA
:101140000302B801110F880B990B0E941B1820E0B5
:1011500030E04AEF5BE30E947A182B013C01609378
:101160002102709322028093230290932402ED8146
:10117000FE81BF01FF0F880B990B0E941B1820E016
:1011800030E04AEF5BE30E947A184B015C01609308
:101190002502709326028093270290932802B101C2
:1011A000330C880B990B0E941B1820E030E04AEFAB
:1011B0005BE30E947A186B017C01609329027093B3
:1011C0002A0280932B0290932C02A3019201C30167
:1011D000B2010E947A182B013C01A5019401C501BE
:1011E000B4010E947A184B015C01A7019601C70166
:1011F000B6010E947A1869837A838B839C83A50148
:101200009401C301B2010E94D31929813A814B8113
:101210005C810E94D3190E941E1B6B017C016093AC
:101220002D0270932E0280932F029093300220E0C3
:1012300030E04AEF5BE30E943F1A0E94E51A709388
:10124000060260930502A7019601C701B6010E943C
:101250007A186D837E838F8398876091510270E046
:1012600080E090E00E941B182D813E814F815885BF
:101270000E947A182AE037ED43E25CE30E947A1874
:101280006B017C0160934502709346028093470294
:10129000909348026093490270934A0280934B02F4
:1012A00090934C022AE037ED43E25CE3C301B201C4
:1012B0000E947A182AE038EE4CE151E40E943F1A6D
:1012C0002B013C0160933102709332028093330210
:1012D000909334022AE037ED43E25CE3C501B401A8
:1012E0000E947A182AE038EE4CE151E40E943F1A3D
:1012F00060933502709336028093370290933802E0
:101300002AE037ED43E25CE369817A818B819C813D
:101310000E947A182AE038EE4CE151E40E943F1A0C
:101320006093390270933A0280933B0290933C029F
:101330002AE037ED43E25CE36D817E818F81988501
:101340000E947A182AE038EE4CE151E40E943F1ADC
:101350004B015C0160933D0270933E0280933F021B
:10136000909340022AE038EE4CE15AE3C701B601FF
:101370000E943F1A0E94E51A70930A0260930902C4
:1013800070930C0260930B022AE038EE4CE15AE3B2
:10139000C501B4010E943F1A0E94E51A7093080229
:1013A0006093070200917001109171014092DD0578
:1013B0005092DE056092DF057092E005B80181EE83
:1013C00095E00E94950081EE95E00E9409058091CC
:1013D000350290913602A0913702B0913802809385
:1013E000890590938A05A0938B05B0938C05B8016D
:1013F0008DE895E00E9495008DE895E00E94090532
:101400008091390290913A02A0913B02B0913C0246
:101410008093350590933605A0933705B093380532
:10142000B80189E395E00E94950089E395E028964C
:101430000FB6F894DEBF0FBECDBFDF91CF911F91E5
:101440000F91FF90EF90DF90CF90BF90AF909F9063
:101450008F907F906F905F904F903F902F900C9463
:10146000090581E028960FB6F894DEBF0FBECDBF08
:10147000DF91CF911F910F91FF90EF90DF90CF9070
:10148000BF90AF909F908F907F906F905F904F90A4
:101490003F902F900C9436111F920F920FB60F921F
:1014A00011242F933F938F939F93AF93BF9380917A
:1014B000E1019091E201A091E301B091E40130914A
:1014C000E00123E0230F2D3720F40196A11DB11D6B
:1014D00005C026E8230F0296A11DB11D2093E0014F
:1014E0008093E1019093E201A093E301B093E401C2
:1014F0008091E5019091E601A091E701B091E801AA
:101500000196A11DB11D8093E5019093E601A09382
:10151000E701B093E801BF91AF919F918F913F9107
:101520002F910F900FBE0F901F9018952F923F9202
:101530004F925F926F927F928F929F92AF92BF92E3
:10154000CF92DF92EF92FF920F931F93CF93DF938F
:10155000EC016A017B0148015901A9019801C70109
:10156000B6010E94E01A87FF4EC0CAAADBAAECAA05
:10157000FDAA8EAA9FAAA8AEB9AE8AAD882309F4A7
:1015800042C02E8C3F8CF10140805180628073807C
:10159000A5019401C301B2010E94E01A181634F4A7
:1015A000F10180829182A282B3820DC0A7019601CF
:1015B000C301B2010E94141887FF05C0F101C08267
:1015C000D182E282F3828EA09FA0A8A4B9A4CEA863
:1015D000DFA8E8ACF9ACA7019601C501B4010E94EF
:1015E000E01A181664F0CAA8DBA8ECA8FDA8A701A9
:1015F0009601C501B4010E94141887FF04C0CEA251
:10160000DFA2E8A6F9A6DF91CF911F910F91FF907D
:10161000EF90DF90CF90BF90AF909F908F907F9092
:101620006F905F904F903F902F9008954F925F92F0
:101630006F927F928F929F92AF92BF92CF92DF92E2
:10164000EF92FF920F931F93CF93DF9300D000D0C0
:10165000CDB7DEB74C01270138010B8D1C8DDC01A5
:101660005F965C934E935E975D967C936E935C97CA
:1016700091963C932E939097DA961C92FC0112AAB5
:1016800013AA14AA15AA80E090E0AFE7B3E486ABF2
:1016900097ABA0AFB1AF84E690E0A0E0B0E086A742
:1016A00097A7A0ABB1AB118F008F20E030E0A9016C
:1016B000C301B2010E94141887FD84C020E030E00D
:1016C000A901C601B5010E94141887FD7BC020E066
:1016D00030E0A9016F89788D898D9A8D0E94141848
:1016E00087FD70C081E090E0D4015B969C938E935F
:1016F0005A97DB968C93DB97F40140825182628289
:1017000073821496AD92BD92CD92DC9217978F8919
:10171000988DA98DBA8D80879187A287B3874486DB
:101720005586668677862DEC3CEC4CEC5DE3C60175
:10173000B5010E947A1869837A838B839C83F401B4
:10174000608B718B828B938B2DEC3CEC4CEC5DE3CE
:101750006F89788D898D9A8D0E943F1A6B017C016B
:10176000D40154966D937D938D939C93579701303C
:10177000110541F5A301920160E070E0CB010E94E8
:10178000D219F401648775878687978729813A8102
:101790004B815C8160E070E0CB010E94D219D401E2
:1017A00050966D937D938D939C935397A7019601CB
:1017B00060E070E0CB010E94D219F401648B758B5C
:1017C000868B978B0E94FD04D4019E960D911D91EE
:1017D0002D913C91D197DC01CB01801B910BA20B89
:1017E000B30BF40182A393A3A4A3B5A30F900F900E
:1017F0000F900F90DF91CF911F910F91FF90EF907D
:10180000DF90CF90BF90AF909F908F907F906F9020
:101810005F904F9008950F931F93CF93DF93FC0138
:1018200073969C012F5C3F4FDF01CD91DD91209796
:1018300041F009891A89EB0149895A89041715076A
:10184000F9F0A217B30789F720E030E041915191F8
:10185000452B79F4220F331FFC01E20FF31F748B29
:10186000638BFC0121A932A92F5F3F4F32AB21AB23
:1018700007C02F5F3F4F2F30310541F780E001C097
:1018800081E0DF91CF911F910F910895FC0181E0DC
:10189000808B178616861682178210861186F28B29
:1018A000E18B8EE091E09183808312AA11AADF017F
:1018B0005396CF01C1961D921D92A817B907D9F76B
:1018C0004283538364837583428753876487758714
:1018D00008951F920F920FB60F9211240F900FBE12
:1018E0000F901F9018951F920F920FB60F92112410
:1018F0002F933F934F935F936F937F938F939F9318
:10190000AF93BF93EF93FF938091B900887F8036A8
:1019100009F49CC068F5883209F45BC090F480310A
:1019200009F454C038F4882309F4F6C0883009F467
:101930004DC0F6C0883109F44CC0803209F45DC056
:10194000EFC0803409F468C048F4803309F455C00E
:10195000883309F0E5C080938502D8C0803509F44A
:101960004FC0883509F45DC0883409F0D9C0D6C0AD
:10197000883909F4C7C0A8F4883709F467C038F477
:10198000883609F463C0803709F460C0C9C088385C
:1019900009F4B8C0803909F45FC0803809F0C0C0CC
:1019A0005BC0803B09F486C038F4803A09F466C015
:1019B000883A09F47FC0B4C0803C09F4A7C0883CD1
:1019C00009F4A4C0883B09F48AC0AAC080916202CD
:1019D00010C09091840280918302981770F5E09175
:1019E000840281E08E0F80938402F0E0ED59FD4F78
:1019F00080818093BB0085EC86C0809385028EC079
:101A0000E091840281E08E0F809384028091BB007C
:101A1000F0E0ED59FD4F8083909184028091830224
:101A20006EC0E091840281E08E0F809384028091E9
:101A3000BB00F0E0ED59FD4F80838091860281115B
:101A40006DC081E08093610284EA61C083E080938D
:101A500087021092DD01CFCF8091DD01803208F046
:101A600051C0E091DD0181E08E0F8093DD01809116
:101A7000BB00F0E0E354FE4F8083BDCF85EC809344
:101A8000BC00109287028091DD01803230F4E09139
:101A9000DD01F0E0E354FE4F10826091DD0170E063
:101AA000E091BB01F091BC018DEB91E009951092A2
:101AB000DD0136C084E0809387021092BA01109253
:101AC000B901E091B701F091B80109958091B90190
:101AD000811105C081E08093B90110929701E091D6
:101AE000BA0181E08E0F8093BA01F0E0E956FE4F13
:101AF00080818093BB009091BA018091B9019817C1
:101B000008F479CF85E88093BC000AC085EC809307
:101B1000BC001092870204C0109285020E94080146
:101B2000FF91EF91BF91AF919F918F917F916F91B5
:101B30005F914F913F912F910F900FBE0F901F908B
:101B400018956115710579F0FB0101900020E9F706
:101B50003197AF01461B570BDC01ED91FC910280E0
:101B6000F381E02D099480E090E00895CF93DF9316
:101B700062E471E088EB92E00E94A10DCFEED1E02B
:101B80008E859F850E94B70F6EE471E088EB92E02E
:101B90000E94A10D888999890E94B70F6AE571E0BA
:101BA00088EB92E00E94A10D8A899B890E94B70F61
:101BB00068E671E088EB92E00E94A10D66E671E0B4
:101BC00088EB92E0DF91CF910C94A10DFC01538D35
:101BD000448D252F30E0842F90E0821B930B541707
:101BE00010F0CF96089501970895FC01918D828D94
:101BF000981761F0828DDF01A80FB11D5D968C9161
:101C0000928D9F5F9F73928F90E008958FEF9FEF6B
:101C10000895FC01918D828D981731F0828DE80F27
:101C2000F11D858D90E008958FEF9FEF0895FC01E1
:101C3000918D228D892F90E0805C9F4F821B9109AE
:101C40008F739927089588EB92E00E94170E21E088
:101C5000892B09F420E0822F0895FC01848DDF0197
:101C6000A80FB11DA35ABF4F2C91848D90E001960F
:101C70008F739927848FA689B7892C93A089B189FE
:101C80008C9180648C93938D848D981306C0028808
:101C9000F389E02D80818F7D80830895EF92FF92FC
:101CA0000F931F93CF93DF93EC0181E0888F9B8D7F
:101CB0008C8D981305C0E889F989808185FD24C041
:101CC000F62E0B8D10E00F5F1F4F0F731127E02EC4
:101CD0008C8DE8120CC00FB607FCFACFE889F989A1
:101CE000808185FFF5CFCE010E942D0EF1CF8B8D27
:101CF000FE01E80FF11DE35AFF4FF0820B8FEA89D6
:101D0000FB898081806207C0EE89FF896083E88952
:101D1000F98980818064808381E090E0DF91CF91B8
:101D20001F910F91FF90EF900895CF93DF93EC01F7
:101D3000888D8823C9F0EA89FB89808185FD05C0EB
:101D4000A889B9898C9186FD0FC00FB607FCF5CF25
:101D5000808185FFF2CFA889B9898C9185FFEDCF6D
:101D6000CE010E942D0EE7CFDF91CF91089580E044
:101D700090E0892B29F00E94230E81110C94000021
:101D800008950E94701D1F920F920FB60F9211249A
:101D90002F933F934F935F936F937F938F939F9373
:101DA000AF93BF93EF93FF9388EB92E00E942D0EC9
:101DB000FF91EF91BF91AF919F918F917F916F9123
:101DC0005F914F913F912F910F900FBE0F901F90F9
:101DD00018951F920F920FB60F9211242F938F9385
:101DE0009F93EF93FF93E091C802F091C902808125
:101DF000E091CE02F091CF0282FD12C090818091DD
:101E0000D1028F5F8F732091D202821751F0E0913F
:101E1000D102F0E0E854FD4F958F8093D10201C0CC
:101E20008081FF91EF919F918F912F910F900FBE25
:101E30000F901F90189590E0FC01EE57FF4F3491E2
:101E4000FC01E254FF4F2491FC01E655FF4FE49161
:101E5000EE2309F43BC0332339F1333091F038F4E9
:101E60003130A9F0323001F584B58F7D12C03730A2
:101E700091F03830A1F03430B9F4809180008F7D3A
:101E800003C0809180008F77809380000DC084B55F
:101E90008F7784BD09C08091B0008F7703C0809197
:101EA000B0008F7D8093B000F0E0EE0FFF1FEA5688
:101EB000FF4FA591B4918FB7F894EC91611103C0D5
:101EC00020952E2301C02E2B2C938FBF08953FB752
:101ED000F8948091E5019091E601A091E701B0911D
:101EE000E80126B5A89B05C02F3F19F00196A11D5A
:101EF000B11D3FBFBA2FA92F982F8827820F911DA0
:101F0000A11DB11DBC01CD0142E0660F771F881FE6
:101F1000991F4A95D1F70895CF92DF92EF92FF92E1
:101F20000F931F93CF93DF936C017A018B01C0E075
:101F3000D0E0CE15DF0589F0D8016D918D01D60175
:101F4000ED91FC910190F081E02DC6010995892B5E
:101F500011F47E0102C02196ECCFC701DF91CF9131
:101F60001F910F91FF90EF90DF90CF9008958F9287
:101F70009F92AF92BF92CF92DF92EF92FF920F9318
:101F80001F93CF93DF93CDB7DEB7A1970FB6F89429
:101F9000DEBF0FBECDBF6C01990FEE08FF08F7FE44
:101FA00033C0E091B802F091B9020190F081E02DC8
:101FB0006DE288EB92E009958C0122273327A90175
:101FC0002C193D094E095F0919A2CE0181967C01A9
:101FD0009AE0892E912CA12CB12CCA01B901A5013E
:101FE00094010E94A119605DF70162937F012115A0
:101FF00031054105510589F7BF0188EB92E00E9448
:10200000A10D800F911F1FC0A701960119A28E017B
:102010000F5D1F4F8AE0C82ED12CE12CF12CCA0194
:10202000B901A70196010E94A119605DF8016293B0
:102030008F01211531054105510589F7BF0188EB55
:1020400092E00E94A10DA1960FB6F894DEBF0FBEDC
:10205000CDBFDF91CF911F910F91FF90EF90DF9057
:10206000CF90BF90AF909F908F90089590E0FC012B
:10207000E254FF4F2491FC01E655FF4F84918823E1
:1020800099F090E0880F991FFC01E056FF4FA59151
:10209000B491FC01EA56FF4F859194918FB7F89463
:1020A000EC91E22BEC938FBF0895CF93DF93EC017B
:1020B00086E00E943610209711F460E004C0CF3F04
:1020C000D10531F461E086E0DF91CF910C941B0FD4
:1020D000E8E8F0E0E491E330F9F048F4E130B9F0F9
:1020E000E230A1F584B5806284BDC8BD34C0E7305C
:1020F000E9F0E83019F1E43049F580918000806220
:1021000080938000D0938B00C0938A0024C084B554
:10211000806884BDC7BD1FC08091800080688093A7
:102120008000D0938900C093880015C08091B000D2
:1021300080688093B000C093B3000DC08091B00060
:1021400080628093B000C093B40005C0C038D10550
:102150000CF0B8CFB2CFDF91CF910895682F88EB04
:1021600092E00C944E0E8F929F92AF92BF92CF92BC
:10217000DF92EF92FF92CF93DF93EC018AAD811152
:1021800030C0EE8DFF8DC080D180E280F380CEA282
:10219000DFA2E8A6F9A6EC8DFD8D80819181A28158
:1021A000B3818AA79BA7ACA7BDA78EA89FA8A8AC00
:1021B000B9ACA5019401C701B6010E94E01A181636
:1021C00064F08AA89BA8ACA8BDA8A5019401C7018A
:1021D000B6010E94141887FF04C08EA29FA2A8A671
:1021E000B9A681E08AAFDF91CF91FF90EF90DF90A9
:1021F000CF90BF90AF909F908F9008958F929F92B5
:10220000AF92BF92CF92DF92EF92FF920E94670F40
:102210004B015C0184EFC82EDD24D394E12CF12C1A
:102220000E94670FDC01CB0188199909AA09BB0933
:10223000883E9340A105B10558F021E0C21AD108AB
:10224000E108F10888EE880E83E0981EA11CB11CFD
:10225000C114D104E104F10419F7FF90EF90DF906D
:10226000CF90BF90AF909F908F900895382F20917E
:10227000AB029091AA02213208F049C080918702F6
:102280008111FCCF42E040938702309386023FEFFA
:10229000309385021092840220938302AAE8B2E070
:1022A00043E652E0FA013E2F341B321718F43D91F9
:1022B0003193F9CF1092620220916202990F922B12
:1022C0009093620290916102913061F410926102E8
:1022D000909162029093BB009091BC0093FDF8CF67
:1022E00095EC01C095EE9093BC00909187029230DE
:1022F000E1F3909185029F3F79F0809185028032D1
:1023000041F080918502803331F084E005C081E0A6
:1023100003C082E001C083E0109289021092AB02F8
:102320001092880208950F931F93CF93DF93EC01CF
:1023300088819981009729F02A813B8126173707E8
:1023400088F48B016F5F7F4F0E94A61C009761F09D
:10235000998388831B830A832C813D81232B11F46D
:10236000FC01108281E001C080E0DF91CF911F91DC
:102370000F9108950F931F93CF93DF93EC010E9469
:10238000FD04688779878A879B87E881F9810284C1
:10239000F385E02DCE01099597FF17C00E94FD043B
:1023A000088519852A853B85DC01CB01801B910BB3
:1023B000A20BB30B0C811D812E813F8180179107E9
:1023C000A207B30710F38FEF9FEFDF91CF911F911B
:1023D0000F91089580915503909156030C940E1C13
:1023E000CF93DF93CDB7DEB728970FB6F894DEBF53
:1023F0000FBECDBF789484B5826084BD84B5816002
:1024000084BD85B5826085BD85B5816085BD8091BF
:102410006E00816080936E00109281008091810037
:10242000826080938100809181008160809381002F
:10243000809180008160809380008091B1008460F1
:102440008093B1008091B00081608093B000809152
:102450007A00846080937A0080917A008260809311
:102460007A0080917A00816080937A0080917A006E
:10247000806880937A001092C10090EA9093EB01FB
:102480008FEF8093EC019093E9018093EA019093A0
:102490005F028093600260915402709155028091B6
:1024A0005602909157020E9419186093D5057093B7
:1024B000D6058093D7059093D805609381057093D6
:1024C0008205809383059093840560932D05709316
:1024D0002E0580932F059093300500E010E02FE744
:1024E00033E440E050E060E273E481EE95E00E9466
:1024F000960A00E010E02FE733E440E050E060E2AD
:1025000073E48DE895E00E94960A00E010E02FE762
:1025100033E440E050E060E273E489E395E00E9438
:10252000960A81EE95E00E94B3108DE895E00E9436
:10253000B31089E395E00E94B310E091C802F091D6
:10254000C90282E08083E091C402F091C50210824A
:10255000E091C602F091C7028FEC80831092D00206
:10256000E091CC02F091CD0286E08083E091CA0236
:10257000F091CB02808180618083E091CA02F0916A
:10258000CB02808188608083E091CA02F091CB0207
:10259000808180688083E091CA02F091CB028081C3
:1025A0008F7D80838AE08093510283E00E94361001
:1025B00085E00E94361086E00E94361061E083E0DC
:1025C0000E941B0F60E085E00E941B0F8FEF90E0E0
:1025D0000E9455100E94FE106EE070E080E090E0D6
:1025E0000E940B181092EE011092ED0110928902D8
:1025F0001092AB021092870211E0109386021092A3
:10260000610261E082E10E941B0F61E083E10E94B0
:102610001B0F8091B9008E7F8093B9008091B90023
:102620008D7F8093B90088E48093B80085E480931F
:10263000BC0082E3C82ED12CE12CF12CC092B00258
:10264000D092B102E092B202F092B30210938802EB
:1026500088E68093AA02109289021092AB026BE680
:102660008CEA92E00E94960160E08CEA92E00E947F
:10267000960181E00E94361110921102109212020E
:102680001092130210921402109215021092160268
:1026900010921702109218021092190210921A0248
:1026A00010921B0210921C0210921D0210921E0228
:1026B00010921F0210922002109221021092220208
:1026C00010922302109224021092250210922602E8
:1026D00010922702109228021092290210922A02C8
:1026E00010922B0210922C0210922D0210922E02A8
:1026F00010922F02109230021092490210924A0258
:1027000010924B0210924C02109245021092460217
:102710001092470210924802109241021092420217
:10272000109243021092440210923102109232022F
:102730001092330210923402109235021092360237
:1027400010923702109238021092390210923A0217
:1027500010923B0210923C0210923D0210923E02F7
:1027600010923F02109240021092F0011092EF017D
:102770001092F1011092F2011092F3011092F40103
:102780001092F8011092F7011092FA011092F901DB
:102790001092FC011092FB011092FE011092FD01BB
:1027A000109200021092FF01109202021092010298
:1027B000109208021092070210920C0210920B0263
:1027C00010920A021092090210920402109203025F
:1027D0001092100210920602109205021092F60159
:1027E0001092F50110920D0210920E0210920F023B
:1027F00010932A05C0921C05D0921D05E0921E057B
:10280000F0921F058091200590912105A09122054D
:10281000B0912305C296A11DB11D8093240590930C
:102820002505A0932605B093270589EB92E09093A8
:102830002905809328051093170544EF51E060E0C7
:1028400070E04093090550930A0560930B0570935F
:102850000C0580910D0590910E05A0910F05B0918A
:1028600010058C509E4FAF4FBF4F80931105909332
:102870001205A0931305B093140585EE91E0909393
:102880001605809315051093040584EC99E0A0E0EB
:10289000B0E08093F6049093F704A093F804B0930B
:1028A000F9048091FA049091FB04A091FC04B0918A
:1028B000FD048C53964FAF4FBF4F8093FE0490930F
:1028C000FF04A0930005B093010589EC91E090937B
:1028D0000305809302051093F1048AE491E0A0E0DF
:1028E000B0E08093E3049093E404A093E504B093F4
:1028F000E6048091E7049091E804A091E904B09186
:10290000EA04865B9E4FAF4FBF4F8093EB049093DA
:10291000EC04A093ED04B093EE0486EB9DE090935D
:10292000F0048093EF041093DE044093D00450939E
:10293000D1046093D2047093D3048091D404909115
:10294000D504A091D604B091D7048C509E4FAF4FC0
:10295000BF4F8093D8049093D904A093DA04B09326
:10296000DB0486EF96E090933E0480933D04109341
:10297000CB0444E650E060E070E04093BD04509327
:10298000BE046093BF047093C0048091C104909111
:10299000C204A091C304B091C4048C599F4FAF4F9F
:1029A000BF4F8093C5049093C604A093C704B0930F
:1029B000C80487E994E09093CA048093C9041093F3
:1029C000B8044093AA045093AB046093AC04709392
:1029D000AD048091AE049091AF04A091B004B09189
:1029E000B1048C599F4FAF4FBF4F8093B204909367
:1029F000B304A093B404B093B50481E394E090933E
:102A0000B7048093B60410933F046EEC74E08FE239
:102A100094E00E940B0C109372046BEB74E082E65E
:102A200094E00E940B0C68EA74E082E694E00E9455
:102A30000B0C65E974E082E694E00E940B0C1093A5
:102A40000C046AE175E08CEF93E00E940B0C67E0E8
:102A500075E08CEF93E00E940B0C64EF74E08CEF58
:102A600093E00E940B0C1093D9036CEF73E089EC98
:102A700093E00E940B0C62E674E089EC93E00E9404
:102A80000B0C6FE274E089EC93E00E940B0C69E69A
:102A900071E080915C0390915D030E94A10D809193
:102AA0005C0390915D03DC01ED91FC910084F18564
:102AB000E02D0995181619060CF061C0E0905C0332
:102AC000F0905D031A8219821C821B821E821D8275
:102AD00060E070E0CE0101960E94931129813A8155
:102AE00081110DC02115310519F0C9010E940E1C7C
:102AF0001A8219821E821D821C821B8222C01E82A3
:102B00001D8268E671E0C9010E947E1D1AC08F8394
:102B100018860D811E810F5F1F4FB801CE010196EF
:102B20000E949311882369F029813A818D819E81C9
:102B3000BE01695F7F4F820F931F0E947E1D1E831F
:102B40000D83C7010E94BA1197FFE1CF00915C038A
:102B500010915D03D801ED91FC914D815E816981F9
:102B60007A810280F381E02DC801099566E671E063
:102B7000C8010E94A10D89819A810E940E1C0E94A9
:102B8000FE100E94B70E83CFAF92BF92CF92DF921A
:102B9000EF92FF920F931F93CF93DF93C8EBD2E096
:102BA0001B821A8288EE93E0A0E0B0E08C839D83C4
:102BB000AE83BF8328E131E03983288325EC30E000
:102BC0003D872C8724EC30E03F872E8720EC30E0D7
:102BD000398B288B21EC30E03B8B2A8B22EC30E0C8
:102BE0003D8B2C8B26EC30E03F8B2E8B198E1A8E72
:102BF0001B8E1C8EECEAF2E0138212828483958392
:102C0000A683B7838AE291E0918380831F921F920B
:102C10001F921F921F921F92A12CB12C6501860159
:102C2000750125ED35E049ED55E06DED75E081EE7E
:102C300095E00E94160B1F921F921F921F921F92E7
:102C40001F9221E835E045E855E069E875E08DE838
:102C500095E00E94160B1F921F921F921F921F92C7
:102C60001F922DE235E041E355E065E375E089E32D
:102C700095E00E94160BEAE1F5E08CE391E0918388
:102C8000808311E0108B17861686128613861486B1
:102C900015861682178210861186F28BE18B1282BE
:102CA000138214821582E7E0F5E091838083108B14
:102CB0001786168612861386148615861682178244
:102CC00010861186F28BE18B128213821482158298
:102CD000E4EFF4E091838083108B178616861286CA
:102CE0001386148615861682178210861186F28B3B
:102CF000E18B1282138214821582E1EEF4E091835B
:102D00008083108B17861686128613861486158686
:102D10001682178210861186F28BE18B1282138243
:102D200014821582EEECF4E091838083108B178679
:102D300016861286138614861586168217821086CA
:102D40001186F28BE18B1282138214821582EBEBD7
:102D5000F4E091838083108B178616861286138683
:102D6000148615861682178210861186F28BE18BE7
:102D70001282138214821582E8EAF4E09183808340
:102D8000108B178616861286138614861586168271
:102D9000178210861186F28BE18B128213821482C5
:102DA0001582E5E9F4E091838083108B17861686FF
:102DB000128613861486158616821782108611864F
:102DC000F28BE18B128213821482158240E050E074
:102DD000BA0182E694E00E94460C40E050E0BA015D
:102DE0008FE294E00E94460C40E050E0BA018CEF84
:102DF00093E00E94460C40E050E0BA0189EC93E079
:102E00000E94460C85E5E82E83E0F82E88E090E0ED
:102E1000F70193838283158214820E94791BF70144
:102E200091838083109298031093990382E080939A
:102E30009A0383E080939B0384E080939C0385E066
:102E400080939D0386E080939E0387E080939F0399
:102E500088E08093A00389E08093A1038AE08093B7
:102E6000A2038BE08093A3038CE08093A4038DE006
:102E70008093A5038EE08093A6038FE08093A70341
:102E800080E18093A80381E18093A90382E180938C
:102E9000AA0383E18093AB0384E18093AC0385E1D3
:102EA0008093AD0386E18093AE0387E18093AF0307
:102EB00088E18093B00389E18093B1038AE1809334
:102EC000B2038BE18093B3038CE18093B4038DE173
:102ED0008093B5038EE18093B6038FE18093B703AF
:102EE00080E28093B80381E28093B90382E2809309
:102EF000BA0383E28093BB0384E28093BC0385E240
:102F00008093BD0386E28093BE0387E28093BF0374
:102F100080E88093C00381E88093C10380EA8093B6
:102F2000C20381EA8093C30382EA8093C40383EAE5
:102F30008093C50384EA8093C60385EA8093C70320
:102F40008FE78093C803D087C7838DB79EB742961B
:102F50000FB6F8949EBF0FBE8DBFDF91CF911F912A
:102F60000F91FF90EF90DF90CF90BF90AF900895BA
:102F70008F929F92AF92BF92CF92DF92EF92FF9289
:102F8000CF93DF93EC01688179818A819B81611500
:102F900071058105910521F464E279ED8BE597E0F7
:102FA0002DE133EF41E050E00E94381949015A0108
:102FB0009B01AC01A7EAB1E40E9457196B017C01A7
:102FC000ACEEB4EFA50194010E946519DC01CB01C0
:102FD0008C0D9D1DAE1DBF1DB7FF03C00197A1093C
:102FE000B04888839983AA83BB83BC01CD019F77B6
:102FF000DF91CF91FF90EF90DF90CF90BF90AF9097
:103000009F908F9008950E94B817089580E091E0F6
:103010000E94B81708956093000170930101809396
:1030200002019093030108950E94561808F481E06C
:103030000895E89409C097FB3EF4909580957095AB
:1030400061957F4F8F4F9F4F9923A9F0F92F96E9F4
:10305000BB279395F695879577956795B795F11169
:10306000F8CFFAF4BB0F11F460FF1BC06F5F7F4F06
:103070008F4F9F4F16C0882311F096E911C0772318
:1030800021F09EE8872F762F05C0662371F096E821
:10309000862F70E060E02AF09A95660F771F881FF0
:1030A000DAF7880F9695879597F90895990F000894
:1030B000550FAA0BE0E8FEEF16161706E807F9070A
:1030C000C0F012161306E407F50798F0621B730BA5
:1030D000840B950B39F40A2661F0232B242B252B26
:1030E00021F408950A2609F4A140A6958FEF811DC9
:1030F000811D08950E948D180C94FE180E94F018EE
:1031000038F00E94F71820F0952311F00C94E7187E
:103110000C94ED1811240C9432190E940F1970F3BD
:10312000959FC1F3950F50E0551F629FF001729F6C
:10313000BB27F00DB11D639FAA27F00DB11DAA1F7B
:10314000649F6627B00DA11D661F829F2227B00DC8
:10315000A11D621F739FB00DA11D621F839FA00D53
:10316000611D221F749F3327A00D611D231F849FA3
:10317000600D211D822F762F6A2F11249F575040FA
:103180009AF0F1F088234AF0EE0FFF1FBB1F661F75
:10319000771F881F91505040A9F79E3F510580F03E
:1031A0000C94E7180C9432195F3FE4F3983ED4F383
:1031B000869577956795B795F795E7959F5FC1F7E2
:1031C000FE2B880F911D9695879597F9089597F98D
:1031D0009F6780E870E060E008959FEF80EC0895BD
:1031E00000240A94161617061806090608950024E6
:1031F0000A9412161306140605060895092E039460
:10320000000C11F4882352F0BB0F40F4BF2B11F4D3
:1032100060FF04C06F5F7F4F8F4F9F4F089557FD32
:103220009058440F551F59F05F3F71F04795880F34
:1032300097FB991F61F09F3F79F0879508951216CB
:1032400013061406551FF2CF4695F1DF08C0161677
:1032500017061806991FF1CF869571056105089428
:103260000895E894BB2766277727CB0197F908953F
:10327000052E97FB1EF400940E944F1957FD07D0AE
:103280000E94A11907FC03D04EF40C944F195095DD
:103290004095309521953F4F4F4F5F4F0895909542
:1032A0008095709561957F4F8F4F9F4F08950E9435
:1032B000C319A59F900DB49F900DA49F800D911DE3
:1032C00011240895B7FF0C9457190E945719821BB7
:1032D000930B08952F923F924F925F926F927F923D
:1032E0008F929F92AF92BF92CF92DF92EF92FF9216
:1032F0000F931F93CF93DF93CDB7DEB7CA1BDB0BC2
:103300000FB6F894DEBF0FBECDBF09942A88398866
:1033100048885F846E847D848C849B84AA84B9846D
:10332000C884DF80EE80FD800C811B81AA81B98179
:10333000CE0FD11D0FB6F894DEBF0FBECDBFED018D
:103340000895A1E21A2EAA1BBB1BFD010DC0AA1FE6
:10335000BB1FEE1FFF1FA217B307E407F50720F0FE
:10336000A21BB30BE40BF50B661F771F881F991F79
:103370001A9469F760957095809590959B01AC01C2
:10338000BD01CF010895A29FB001B39FC001A39FCB
:10339000700D811D1124911DB29F700D811D11248E
:1033A000911D08955058BB27AA270E94EA190C9432
:1033B000FE180E94F01838F00E94F71820F039F437
:1033C0009F3F19F426F40C94ED180EF4E095E7FBFA
:1033D0000C94E718E92F0E940F1958F3BA176207E7
:1033E00073078407950720F079F4A6F50C9431193A
:1033F0000EF4E0950B2EBA2FA02D0B01B901900110
:103400000C01CA01A0011124FF27591B99F0593F53
:1034100050F4503E68F11A16F040A22F232F342F9B
:103420004427585FF3CF469537952795A795F040E9
:103430005395C9F77EF41F16BA0B620B730B840BFE
:10344000BAF09150A1F0FF0FBB1F661F771F881FB6
:10345000C2F70EC0BA0F621F731F841F48F487950E
:1034600077956795B795F7959E3F08F0B0CF939500
:10347000880F08F09927EE0F9795879508950E9479
:10348000531A0C94FE180E94F71858F00E94F01876
:1034900040F029F45F3F29F00C94E71851110C9487
:1034A00032190C94ED180E940F1968F39923B1F3A7
:1034B000552391F3951B550BBB27AA27621773075A
:1034C000840738F09F5F5F4F220F331F441FAA1FEE
:1034D000A9F335D00E2E3AF0E0E832D091505040AA
:1034E000E695001CCAF72BD0FE2F29D0660F771F58
:1034F000881FBB1F261737074807AB07B0E809F03E
:10350000BB0B802DBF01FF2793585F4F3AF09E3FC2
:10351000510578F00C94E7180C9432195F3FE4F3EE
:10352000983ED4F3869577956795B795F7959F5F05
:10353000C9F7880F911D9695879597F90895E1E051
:10354000660F771F881FBB1F621773078407BA07B0
:1035500020F0621B730B840BBA0BEE1F88F7E0950B
:1035600008950E94171988F09F5798F0B92F99274E
:10357000B751B0F0E1F0660F771F881F991F1AF05E
:10358000BA95C9F714C0B13091F00E943119B1E079
:1035900008950C943119672F782F8827B85F39F078
:1035A000B93FCCF3869577956795B395D9F73EF4F7
:1035B00090958095709561957F4F8F4F9F4F08959F
:1035C0000E94561808F48FEF08950E94171958F1B9
:1035D0009E5760F19851A0F0E9F0983020F5092E3F
:1035E0009927660F771F881F991F0A94D1F712C079
:1035F000062E672F782F8827985F11F4000C07C0DC
:10360000993FB4F38695779567959395D9F7611DA2
:10361000711D811D3EF490958095709561957F4F49
:103620008F4F9F4F089568940C9432190C94311960
:1036300019F416F40C94ED180C945E1B0E941719E3
:10364000B8F39923C9F3B6F39F57550B87FF0E9430
:103650006C1B0024A0E640EA90018058569597958F
:1036600028F4805C660F771F881F20F02617370725
:10367000480730F4621B730B840B202931294A2B35
:10368000A69517940794202531254A2758F7660FE9
:10369000771F881F20F026173707480730F4620B82
:1036A000730B840B200D311D411DA09581F7B901CD
:1036B000842F9158880F9695879508959F3F31F0F4
:1036C000915020F4879577956795B795880F911D50
:1036D0009695879597F9089591505040660F771FFA
:1036E000881FD2F70895EE0FFF1F0590F491E02D8B
:1036F0000994CF93DF938230910510F482E090E03B
:10370000E0912B06F0912C0620E030E0C0E0D0E004
:10371000309711F14081518148175907C0F048177F
:10372000590761F482819381209719F09B838A83E2
:103730002BC090932C0680932B0626C021153105B3
:1037400019F04217530718F49A01BE01DF01EF0187
:103750000280F381E02DDCCF2115310509F1281B12
:10376000390B2430310590F412968D919C9113976A
:103770006115710521F0FB019383828304C090934E
:103780002C0680932B06FD01329644C0FD01E20F0A
:10379000F31F81939193225031092D933C933AC0AA
:1037A0002091290630912A06232B41F4209106010D
:1037B0003091070130932A062093290620910401B5
:1037C000309105012115310541F42DB73EB74091E7
:1037D000080150910901241B350BE0912906F09155
:1037E0002A06E217F307A0F42E1B3F0B2817390710
:1037F00078F0AC014E5F5F4F2417350748F04E0F4D
:103800005F1F50932A06409329068193919302C02B
:10381000E0E0F0E0CF01DF91CF9108950F931F9387
:10382000CF93DF93009709F48CC0FC013297138289
:10383000128200912B0610912C060115110581F4BE
:1038400020813181820F931F2091290630912A0611
:103850002817390779F5F0932A06E093290671C0F5
:10386000D80140E050E0AE17BF0750F412962D91FA
:103870003C911397AD012115310509F1D901F3CF21
:103880009D01DA013383228360817181860F971F46
:103890008217930769F4EC0128813981260F371FBD
:1038A0002E5F3F4F318320838A819B819383828364
:1038B000452B29F4F0932C06E0932B0642C0139677
:1038C000FC93EE931297ED01499159919E01240FBB
:1038D000351FE217F30771F480819181840F951FE2
:1038E000029611969C938E938281938113969C935A
:1038F0008E931297E0E0F0E0D80112968D919C91A2
:103900001397009719F0F8018C01F6CF8D919C91D7
:1039100098012E5F3F4F820F931F2091290630910F
:103920002A062817390769F4309729F410922C06D3
:1039300010922B0602C01382128210932A06009363
:103940002906DF91CF911F910F910895A0E0B0E07B
:10395000ECEAFCE10C946E19EC01009721F4CB0128
:103960000E94791BB8C0FC01E60FF71F9C01225092
:103970003109E217F30708F4ACC0D9010D911C918D
:10398000119706171707B0F00530110508F49FC00E
:10399000C80104978617970708F499C002501109C7
:1039A000061B170B019311936D937C93CF010E941B
:1039B0000E1C8DC05B01A01AB10A4C01800E911E35
:1039C000A0912B06B0912C0640E050E0E12CF12CA8
:1039D000109709F44AC0A815B905D1F56D907C90EF
:1039E0001197630182E0C80ED11CCA14DB0480F178
:1039F000A3014A195B096A0182E0C80ED11C129624
:103A0000BC9012971396AC91B5E0CB16D10440F060
:103A1000B282A38351834083D9016D937C930AC002
:103A20000E5F1F4FC301800F911FF90191838083A7
:103A3000EB2DFA2FE114F10431F0D7011396FC932A
:103A4000EE93129744C0F0932C06E0932B063FC0F0
:103A50008D919C9111974817590708F4AC017D018D
:103A600012960D90BC91A02DB3CF80912906909114
:103A70002A0688159905E1F446175707C8F480917E
:103A8000040190910501009741F48DB79EB74091D4
:103A9000080150910901841B950BE817F907C8F438
:103AA000F0932A06E0932906F901718360830FC021
:103AB000CB010E94791B7C01009759F0A801BE013F
:103AC0000E94751DCE010E940E1CC70104C0CE01CC
:103AD00002C080E090E0CDB7DEB7EEE00C948A192A
:103AE00081E090E0F8940C94851DFB01DC0102C09C
:103AF00001900D9241505040D8F70895FB01DC0130
:103B000001900D920020E1F7089510E0CAE6D0E0A0
:103B100004C0FE010E94731B2196CB36D107C9F762
:043B2000F894FFCF47
:103B24000100000000002D06800000000000E300FA
:103B3400F5008F06000000004E0E8C0FE60D950E6A
:103B4400170EF50D090E0000000096016601C6016E
:103B54003A015E014A013B0100000000E300F50068
:103B64006C06207C207841537261772D3E00207CC6
:103B7400207941537261772D3E00207C207A415395
:103B84007261772D3E000D0A007465737465000040
:00000001FF
