:100000000C946A000C9492000C9492000C943D099C
:100010000C943D090C943D090C9492000C949200B0
:100020000C9492000C9492000C9492000C94920008
:100030000C9492000C9492000C9492000C949200F8
:100040000C9495080C9492000C94840C0C945E0C07
:100050000C9492000C9492000C9492000C949200D8
:100060000C9447090C9492001208390839088F073C
:10007000A107AB07B507BF07D107E207F407FE07E3
:100080000808000000080002010000030407000047
:1000900000000000000000000000250028002B00E8
:1000A00000000000240027002A00040404040404C3
:1000B0000404020202020202030303030303010217
:1000C00004081020408001020408102001020408E6
:1000D0001020B60C11241FBECFEFD8E0DEBFCDBF7D
:1000E00011E0A0E0B1E0EAE4FAE202C005900D926E
:1000F000AA36B107D9F724E0AAE6B1E001C01D9203
:10010000A13CB207E1F710E0CAE6D0E004C02197B5
:10011000FE010E94EB13C936D107C9F70E94E60D14
:100120000C9423150C94000080E090E0892B29F0BA
:100130000E94DD0A81110C9400000895FC014283A5
:1001400053836483758386819781A085B185480F29
:10015000591F6A1F7B1F42875387648775870895DD
:100160000F931F93FC010285138524853585401B61
:10017000510B620B730B77FD02C0808901C080E0D8
:100180001F910F91089585ED8093BC008091BC0074
:1001900084FDFCCF1092690208954091AD01262F95
:1001A00030E0240F311D21323105DCF42091690249
:1001B0002430C9F4FC0180E090E0861758F43091B7
:1001C000AD012191DC01A557BE4FA30FB11D2C93AA
:1001D0000196F3CF8091AD01680F6093AD0180E08F
:1001E000089581E0089582E008950895E091DE0188
:1001F0008091DD01E81730F4F0E0E559FE4F808191
:1002000090E008958FEF9FEF08959091DE01809127
:10021000DD01981750F4E92FF0E0E559FE4F2081F9
:1002200030E09F5F9093DE0102C02FEF3FEFC901E6
:1002300008958091DD0190E02091DE01821B9109FB
:100240000895CF92DF92EF92FF920F931F93CF9377
:10025000DF937C01262F972F8A0180916A028823E1
:1002600091F0C62FD72F6E01C40ED51ECC15DD051B
:1002700071F06991D701ED91FC910190F081E02D31
:10028000C7010995F3CF642F822F0E94CD00C801CA
:10029000DF91CF911F910F91FF90EF90DF90CF9062
:1002A0000895CF93DF931F92CDB7DEB76983209176
:1002B0006A022223D1F020918D02203240F021E009
:1002C00030E0FC013383228380E090E015C0809110
:1002D0006B02E82FF0E0E459FD4F998190838F5F26
:1002E00080936B0280938D0205C061E0CE01019680
:1002F0000E94CD0081E090E00F90DF91CF910895B2
:10030000089580E090E008950E941E158FE790E028
:100310000E94FC0B8FE790E00E94FC0B82E090E0D3
:100320000E94FC0B82E090E00E94FC0B81E090E0D8
:100330000E94FC0B85EA90E00E94FC0B86EA90E0AC
:100340000C94FC0B0F931F93CF93DF93CDB7DEB7C5
:10035000E9970FB6F894DEBF0FBECDBF8E010F5FD9
:100360001F4F89E3F80111928A95E9F78FE790E032
:100370000E94FC0B8FE790E00E94FC0B82E090E073
:100380000E94FC0B69E38EE892E00E94E70A84E099
:1003900089838091E0018A838091DF018B8388E0EB
:1003A0008C838091E4018D838091E3018E83809121
:1003B000E2018F838091E101888789E189878091BB
:1003C000E8018A878091E7018B878AE18C87809199
:1003D000EA018D878091E9018E878BE18F8780917B
:1003E000EC01888B8091EB01898B8CE18A8B809169
:1003F000EE018B8B8091ED018C8B8DE18D8B80914B
:10040000F0018E8B8091EF018F8B8EE1888F809130
:10041000F201898F8091F1018A8F8FE18B8F80911A
:10042000F8018C8F8091F7018D8F83E28E8F809100
:10043000FA018F8F8091F90188A384E289A38091CA
:10044000FC018AA38091FB018BA385E28CA38091A0
:10045000F4018DA38091F3018EA386E28FA3809196
:10046000F60188A78091F50189A787E28AA7809184
:1004700000028BA78EE08CA78091E6018DA780916A
:10048000E5018EA78BE08FA78091FD0188AB8CE002
:1004900089AB8091FE018AAB8DE08BAB8091FF012F
:1004A0008CAB49E350E0B8018EE892E00E94750AF7
:1004B000F8019E01265C3F4F60E070E0CB01419166
:1004C000640F711D811D911DE217F307C1F78EE8BE
:1004D00092E00E94E70AE9960FB6F894DEBF0FBEDD
:1004E000CDBFDF91CF911F910F910895CF93DF93EF
:1004F00082E491E00E94500BCFEDD1E08E859F8584
:100500000E94620B8EE491E00E94500B88899989C9
:100510000E94620B8AE591E00E94500B8A899B89B8
:100520000E94620B88E691E00E94500B86E691E003
:10053000DF91CF910C94500B2F923F924F925F928C
:100540006F927F928F929F92AF92BF92CF92DF92E3
:10055000EF92FF920F931F93CF93DF9381E08093ED
:100560006A0288E680938C0210926B0210928D02D0
:100570006BE38BE293E00E94510180E00E94010C4A
:10058000809169028111FCCF81E0809369028093A0
:1005900068029FEF90936702109266029DE090932D
:1005A00065028093440280914402806D80934402EE
:1005B00080914302813061F41092430280914402A1
:1005C0008093BB008091BC0083FDF8CF85EC01C017
:1005D00085EE8093BC00809169028130E1F38091C7
:1005E00066028E3018F48091660201C08EE0A5E4A8
:1005F000B2E02BE631E0F9019E2F921B981718F418
:100600009D919193F9CF1092DE018093DD018E30A0
:1006100008F40CC28BE293E00E940501C82F8BE224
:1006200093E00E94050120E030E03C2F822B932BC9
:100630009093E8018093E7018BE293E00E9405012B
:10064000C82F8BE293E00E94050120E030E03C2FB0
:10065000822B932B9093EA018093E9018BE293E044
:100660000E940501C82F8BE293E00E94050120E063
:1006700030E03C2F822B932B9093EC018093EB0185
:100680008BE293E00E940501C82F8BE293E00E9469
:10069000050120E030E03C2F822B932B9093E60164
:1006A0008093E5018BE293E00E940501C82F8BE265
:1006B00093E00E94050120E030E03C2F822B932B39
:1006C0009093EE018093ED018BE293E00E9405018F
:1006D000C82F8BE293E00E94050120E030E03C2F20
:1006E000822B932B9093F0018093EF018BE293E0A8
:1006F0000E940501182F8BE293E00E940501D12F83
:1007000020E0C22FC82BD92BD093F201C093F10166
:100710000091ED011091EE010F581F4F1093EE0163
:100720000093ED012090EF013090F0018DE4280E50
:10073000311C3092F0012092EF016091E70170913D
:10074000E801072E000C880B990B0E9422112AE069
:1007500038EE4CE15AE30E945D112B013C0160939D
:10076000010270930202809303029093040260914D
:10077000E9017091EA01072E000C880B990B0E9489
:1007800022112AE038EE4CE15AE30E945D114B0140
:100790005C016093050270930602809307029093B8
:1007A00008026091EB017091EC01072E000C880BA0
:1007B000990B0E9422112AE038EE4CE15AE30E9484
:1007C0005D116B017C016093090270930A028093B2
:1007D0000B0290930C02A3019201C301B2010E948B
:1007E0005D112B013C01A5019401C501B4010E94DA
:1007F0005D119B01AC01C301B2010E947F124B014C
:100800005C01A7019601C701B6010E945D119B0121
:10081000AC01C501B4010E947F120E94961360933F
:100820000D0270930E0280930F02909310022AE043
:1008300038EE4CE15AE30E94EB120E945D13709374
:10084000F4016093F301B801110F880B990B0E941A
:10085000221120E030E04AEF5BE30E945D116B0162
:100860007C016093110270931202809313029093A3
:100870001402B101330C880B990B0E94221120E065
:1008800030E04AEF5BE30E945D114B015C01609335
:100890001502709316028093170290931802BE01FE
:1008A000DD0F880B990B0E94221120E030E04AEF07
:1008B0005BE30E945D112B013C0160931902709370
:1008C0001A0280931B0290931C02A7019601C70194
:1008D000B6010E945D116B017C01A5019401C50167
:1008E000B4010E945D119B01AC01C701B6010E94D9
:1008F0007F126B017C01A3019201C301B2010E942E
:100900005D119B01AC01C701B6010E947F120E94DC
:1009100096136B017C0160931D0270931E028093FD
:100920001F029093200220E030E04AEF5BE30E9438
:10093000EB120E945D137093F6016093F501A7011D
:100940009601C701B6010E945D114B015C018091C7
:100950003502682F70E080E090E00E942211A5012E
:1009600094010E945D112AE037ED43E25CE30E94AE
:100970005D116B017C016093290270932A028093C0
:100980002B0290932C0260932D0270932E02809381
:100990002F02909330022AE037ED43E25CE3C50179
:1009A000B4010E945D112AE038EE4CE151E40E944E
:1009B000EB124B015C016093210270932202809341
:1009C0002302909324022AE038EE4CE15AE3C70157
:1009D000B6010E94EB120E945D137093FA016093BE
:1009E000F9017093FC016093FB012AE038EE4CE1C1
:1009F0005AE3C501B4010E94EB120E945D1370938B
:100A0000F8016093F701DF91CF911F910F91FF9053
:100A1000EF90DF90CF90BF90AF909F908F907F909E
:100A20006F905F904F903F902F90089581E0DF91FD
:100A3000CF911F910F91FF90EF90DF90CF90BF90DB
:100A4000AF909F908F907F906F905F904F903F906E
:100A50002F900C94010CFC01848DDF01A80FB11DB7
:100A6000A35ABF4F2C91848D90E001968F739927E4
:100A7000848FA689B7892C93A089B1898C918064D1
:100A80008C93938D848D981306C00288F389E02D92
:100A900080818F7D8083089590E0FC01EE57FF4FA9
:100AA0003491FC01E254FF4F2491FC01E655FF4FC5
:100AB000E491EE2309F43BC0332339F1333091F054
:100AC00038F43130A9F0323001F584B58F7D12C091
:100AD000373091F03830A1F03430B9F48091800093
:100AE0008F7D03C0809180008F77809380000DC040
:100AF00084B58F7784BD09C08091B0008F7703C023
:100B00008091B0008F7D8093B000F0E0EE0FFF1F6A
:100B1000EA56FF4FA591B4918FB7F894EC9161110B
:100B200003C020952E2301C02E2B2C938FBF089538
:100B3000CF92DF92EF92FF920E9412112EE030E0EE
:100B400040E050E00E941B126B017C0121EBC20EC1
:100B5000D11CE11CF11CC0926A0186E00E94DD0BF1
:100B6000E8E8F0E0E491E330F9F048F4E130B9F07E
:100B7000E230A1F584B5806284BDC8BC33C0E730E3
:100B8000E9F0E83019F1E43049F5809180008062A5
:100B900080938000D0928B00C0928A0023C084B5DD
:100BA000806884BDC7BC1EC080918000806880932F
:100BB0008000D0928900C092880014C08091B0005B
:100BC00080688093B000C092B3000CC08091B000E8
:100BD00080628093B000C092B40004C061E086E0FF
:100BE0000E944C0520916A01822F90E0A0E0B0E0C5
:100BF0009C01AD01215B310941095109AFEFB0E022
:100C00000E943A122EE430E040E050E00E941B12B5
:100C10002093FE01622F70E080E090E00E9420119E
:100C20009B01AC010E945D1120E030E0A9010E940F
:100C30007F1220E030E0A9010E947F120E949613EB
:100C40000E945D1360930002FF90EF90DF90CF90C1
:100C500008953FB7F8948091D9019091DA01A0915D
:100C6000DB01B091DC0126B5A89B05C02F3F19F030
:100C70000196A11DB11D3FBFBA2FA92F982F88271C
:100C8000820F911DA11DB11DBC01CD0142E0660F77
:100C9000771F881F991F4A95D1F708952FB7F894A9
:100CA0006091D5017091D6018091D7019091D801C2
:100CB0002FBF08950F931F93CF93DF93EC01EE8521
:100CC000FF85309709F009950E944E066E837F8359
:100CD000888799870A811B812C813D81DC01CB01AA
:100CE000800F911FA21FB31F8A879B87AC87BD8788
:100CF000DF91CF911F910F9108958F929F92AF92A4
:100D0000BF92CF92DF92EF92FF920F931F93CF93F8
:100D1000DF93EC01EE85FF85309709F009950E947D
:100D20004E064B015C018E016E012EE1C20ED11CFC
:100D3000E12CF12C89A99AA98E159F0524F1D801DF
:100D400053968D919C9154970097C1F0BFEFEB1A89
:100D5000FB0ADC01ED91FC910280F381E02DB501ED
:100D6000A4010995882351F0F80183899489DC0155
:100D7000ED91FC910480F581E02D09950E5F1F4FE8
:100D80000C151D05B9F60E944E066E837F83888779
:100D900099870A811B812C813D81DC01CB01800F69
:100DA000911FA21FB31F8A879B87AC87BD87DF91E6
:100DB000CF911F910F91FF90EF90DF90CF90BF9058
:100DC000AF909F908F9008954F925F926F927F9215
:100DD0008F929F92AF92BF92CF92DF92EF92FF924B
:100DE0000F931F93CF93DF938EE892E00E94D10A76
:100DF00004970CF489C18EE892E00E94AF0A8F3705
:100E0000910509F081C18EE892E00E94AF0A8F3708
:100E1000910509F079C18EE892E00E94AF0AE82EB0
:100E20008EE892E00E94AF0AF82EEC01DD278EE8F2
:100E300092E00E94D10A8C179D07CCF3CE010E944C
:100E4000F1138C016C01C80FD91F5C01AC16BD06F3
:100E500099F10E944E0660939602709397028093D8
:100E6000980290939902E0918E02F0918F02028491
:100E7000F385E02D8EE892E0099597FF21C00E944E
:100E80004E064090960250909702609098027090A3
:100E90009902DC01CB0184199509A609B709409094
:100EA0009202509093026090940270909502841583
:100EB0009505A605B705B8F2812C912C540104C004
:100EC000F50181935F01C2CFCC16DD0641F0F6013A
:100ED00081916F01880E911CA11CB11CF5CF8EE889
:100EE00092E00E94AF0A912C8815990509F0DFC0A5
:100EF000F2E0EF12C0C0C0E0CF1508F005C1F80164
:100F0000EC0FF11DE0818E2F90E0FC013197ED3068
:100F1000F10508F0AEC0EC5CFF4F0C94EB1381E0E0
:100F20008C0FF801E80FF11D80818093320282E07E
:100F30008C0FF801E80FF11DCD5F808180933102A5
:100F4000DBCF81E08C0FF801E80FF11DCE5F8081CF
:100F500080933302D1CF81E08C0FF801E80FF11DAF
:100F6000CE5F808180933402C7CF81E08C0FF8017F
:100F7000E80FF11DCE5F808180933502BDCF81E007
:100F80008C0FF801E80FF11D80818093370282E019
:100F90008C0FF801E80FF11DCD5F80818093360240
:100FA000ABCF83E090E034E03C0FFC01EF5CFD4F01
:100FB000232F281BD801A20FB11D2C912783019745
:100FC000A0F710C083E090E034E03C0FFC01EF5C40
:100FD000FD4F232F281BD801A20FB11D2C91238771
:100FE0000197A0F7CB5F88CF81E08C0FF801E80F65
:100FF000F11DCE5F8081809340027ECF81E08C0F17
:10100000F801E80FF11DCE5F80818093410274CF1B
:1010100081E08C0FF801E80FF11DCE5F8081809395
:1010200042026ACF81E08C0FF801E80FF11DCE5F1C
:101030008081843A09F060CF8FE790E00E94FC0B3A
:101040008FE790E00E94FC0B82E090E00E94FC0B96
:1010500082E090E00E94FC0B81E090E00E94FC0B9B
:1010600080EA90E00E94FC0B81EA90E00E94FC0B79
:1010700043CFCF5F41CF8FE790E00E94FC0B8FE71B
:1010800090E00E94FC0B82E090E00E94FC0B82E06A
:1010900090E00E94FC0B60E08EE892E00E94E70A7C
:1010A00081E890E00E94FC0B81E890E01BC08FE794
:1010B00090E00E94FC0B8FE790E00E94FC0B82E026
:1010C00090E00E94FC0B82E090E00E94FC0B60E04C
:1010D0008EE892E00E94E70A80E890E00E94FC0B14
:1010E00080E890E0DF91CF911F910F91FF90EF90FA
:1010F000DF90CF90BF90AF909F908F907F906F9038
:101100005F904F900C94FC0BDF91CF911F910F914A
:10111000FF90EF90DF90CF90BF90AF909F908F9017
:101120007F906F905F904F9008951F920F920FB62F
:101130000F9211242F933F938F939F93AF93BF935D
:101140008091D5019091D601A091D701B091D8019D
:101150003091D40123E0230F2D3720F40196A11DF7
:10116000B11D05C026E8230F0296A11DB11D2093D5
:10117000D4018093D5019093D601A093D701B09369
:10118000D8018091D9019091DA01A091DB01B09151
:10119000DC010196A11DB11D8093D9019093DA0164
:1011A000A093DB01B093DC01BF91AF919F918F9130
:1011B0003F912F910F900FBE0F901F9018950F9396
:1011C0001F93CF93DF93FC0173969C012F5C3F4FDD
:1011D000DF01CD91DD91209741F009891A89EB015A
:1011E00049895A8904171507F9F0A217B30789F737
:1011F00020E030E041915191452B79F4220F331FCB
:10120000FC01E20FF31F748B638BFC0121A932A94F
:101210002F5F3F4F32AB21AB07C02F5F3F4F2F30C7
:10122000310541F780E001C081E0DF91CF911F914E
:101230000F910895FC0181E0808B17861686168237
:10124000178210861186F28BE18B8EE091E09183FC
:10125000808312AA11AADF015396CF01C1961D9275
:101260001D92A817B907D9F7428353836483758306
:10127000428753876487758708951F920F920FB630
:101280000F9211240F900FBE0F901F9018951F9270
:101290000F920FB60F9211242F933F934F935F93AA
:1012A0006F937F938F939F93AF93BF93EF93FF932E
:1012B0008091B900887F803609F49CC068F5883237
:1012C00009F45BC090F4803109F454C038F48823E9
:1012D00009F4F6C0883009F44DC0F6C0883109F42D
:1012E0004CC0803209F45DC0EFC0803409F468C09E
:1012F00048F4803309F455C0883309F0E5C0809381
:101300006702D8C0803509F44FC0883509F45DC044
:10131000883409F0D9C0D6C0883909F4C7C0A8F408
:10132000883709F467C038F4883609F463C0803719
:1013300009F460C0C9C0883809F4B8C0803909F41C
:101340005FC0803809F0C0C05BC0803B09F486C034
:1013500038F4803A09F466C0883A09F47FC0B4C012
:10136000803C09F4A7C0883C09F4A4C0883B09F478
:101370008AC0AAC08091440210C0909166028091F8
:101380006502981770F5E091660281E08E0F8093F8
:101390006602F0E0EB5BFD4F80818093BB0085EC43
:1013A00086C0809367028EC0E091660281E08E0F56
:1013B000809366028091BB00F0E0EB5BFD4F808381
:1013C00090916602809165026EC0E091660281E0B4
:1013D0008E0F809366028091BB00F0E0EB5BFD4FC7
:1013E00080838091680281116DC081E08093430207
:1013F00084EA61C083E0809369021092D101CFCF6B
:101400008091D101803208F051C0E091D10181E09A
:101410008E0F8093D1018091BB00F0E0EF54FE4F1E
:101420008083BDCF85EC8093BC00109269028091CF
:10143000D101803230F4E091D101F0E0EF54FE4F61
:1014400010826091D10170E0E091AF01F091B001A4
:1014500081EB91E009951092D10136C084E0809330
:1014600069021092AE011092AD01E091AB01F091D2
:10147000AC0109958091AD01811105C081E0809397
:10148000AD0110928B01E091AE0181E08E0F80934F
:10149000AE01F0E0E557FE4F80818093BB00909154
:1014A000AE018091AD01981708F479CF85E880935B
:1014B000BC000AC085EC8093BC001092690204C095
:1014C000109267020E94C300FF91EF91BF91AF910C
:1014D0009F918F917F916F915F914F913F912F914C
:1014E0000F900FBE0F901F901895CF92DF92EF9242
:1014F000FF920F931F93CF93DF936C017A018B01BF
:10150000C0E0D0E0CE15DF0589F0D8016D918D01E6
:10151000D601ED91FC910190F081E02DC601099575
:10152000892B11F47E0102C02196ECCFC701DF9117
:10153000CF911F910F91FF90EF90DF90CF90089582
:10154000FC01538D448D252F30E0842F90E0821BC9
:10155000930B541710F0CF96089501970895FC014E
:10156000918D828D981761F0828DDF01A80FB11DDA
:101570005D968C91928D9F5F9F73928F90E00895FE
:101580008FEF9FEF0895FC01918D828D981731F0B8
:10159000828DE80FF11D858D90E008958FEF9FEF0C
:1015A0000895FC01918D228D892F90E0805C9F4FE2
:1015B000821B91098F73992708958EE892E00E940B
:1015C000D10A21E0892B09F420E0822F0895EF92BF
:1015D000FF920F931F93CF93DF93EC0181E0888FED
:1015E0009B8D8C8D981305C0E889F989808185FDD4
:1015F00024C0F62E0B8D10E00F5F1F4F0F731127C5
:10160000E02E8C8DE8120CC00FB607FCFACFE889EB
:10161000F989808185FFF5CFCE010E942B05F1CF9E
:101620008B8DFE01E80FF11DE35AFF4FF0820B8F07
:10163000EA89FB898081806207C0EE89FF89608327
:10164000E889F98980818064808381E090E0DF917E
:10165000CF911F910F91FF90EF900895CF93DF935B
:10166000EC01888D8823C9F0EA89FB89808185FD9A
:1016700005C0A889B9898C9186FD0FC00FB607FCFB
:10168000F5CF808185FFF2CFA889B9898C9185FF3C
:10169000EDCFCE010E942B05E7CFDF91CF910895CA
:1016A000009769F0FC0101900020E9F73197AF0144
:1016B000481B590BBC018EE892E00C94750A80E03F
:1016C00090E008958F929F92AF92BF92CF92DF9257
:1016D000EF92FF920F931F93CF93DF93CDB7DEB7B7
:1016E000A1970FB6F894DEBF0FBECDBF6C01990F66
:1016F000EE08FF08F7FE31C0E0918E02F0918F02F4
:101700000190F081E02D6DE28EE892E009958C0168
:1017100022273327A9012C193D094E095F0919A277
:10172000CE0181967C019AE0892E912CA12CB12CBE
:10173000CA01B901A50194010E944D12605DF70133
:1017400062937F01211531054105510589F7CF01CC
:101750000E94500B800F911F1DC0A701960119A276
:101760008E010F5D1F4F8AE0C82ED12CE12CF12C89
:10177000CA01B901A70196010E944D12605DF801EE
:1017800062938F01211531054105510589F7CF017C
:101790000E94500BA1960FB6F894DEBF0FBECDBFCE
:1017A000DF91CF911F910F91FF90EF90DF90CF903D
:1017B000BF90AF909F908F90089590E0FC01E2540D
:1017C000FF4F2491FC01E655FF4F8491882399F047
:1017D00090E0880F991FFC01E056FF4FA591B4914E
:1017E000FC01EA56FF4F859194918FB7F894EC91E4
:1017F000E22BEC938FBF0895682F8EE892E00C9453
:10180000E70A382F20918D0290918C02213208F046
:1018100049C0809169028111FCCF42E04093690286
:10182000309368023FEF3093670210926602209374
:101830006502ACE6B2E045E452E0FA013E2F341B0B
:10184000321718F43D913193F9CF10924402209150
:101850004402990F922B909344029091430291304D
:1018600061F410924302909144029093BB009091D6
:10187000BC0093FDF8CF95EC01C095EE9093BC00B1
:10188000909169029230E1F3909167029F3F79F065
:1018900080916702803241F080916702803331F09D
:1018A00084E005C081E003C082E001C083E01092C3
:1018B0006B0210928D0210926A0208951F920F928D
:1018C0000FB60F9211242F933F934F935F936F9313
:1018D0007F938F939F93AF93BF93EF93FF938EE884
:1018E00092E00E942B05FF91EF91BF91AF919F91E4
:1018F0008F917F916F915F914F913F912F910F90B9
:101900000FBE0F901F9018951F920F920FB60F9257
:1019100011242F938F939F93EF93FF93E0919E0257
:10192000F0919F028081E091A402F091A50282FDD6
:1019300012C090818091A7028F5F8F732091A802BF
:10194000821751F0E091A702F0E0E257FD4F958F2A
:101950008093A70201C08081FF91EF919F918F91A9
:101960002F910F900FBE0F901F9018950F931F93FC
:10197000CF93DF93EEE8F2E01382128288EE93E0D9
:10198000A0E0B0E084839583A683B78328E131E0AB
:101990003183208325EC30E03587248724EC30E048
:1019A0003787268720EC30E0318B208B21EC30E02C
:1019B000338B228B22EC30E0358B248B26EC30E00D
:1019C000378B268B118E128E138E148EEBE2F3E082
:1019D0001382128284839583A683B7838AE291E07F
:1019E00091838083EAEAF4E08CE391E09183808341
:1019F00011E0108B178616861286138614861586BC
:101A00001682178210861186F28BE18B1282138266
:101A100014821582E7E9F4E091838083108B1786A6
:101A200016861286138614861586168217821086ED
:101A30001186F28BE18B1282138214821582E4E804
:101A4000F4E091838083108B1786168612861386A6
:101A5000148615861682178210861186F28BE18B0A
:101A60001282138214821582E1E7F4E0918380836D
:101A7000108B178616861286138614861586168294
:101A8000178210861186F28BE18B128213821482E8
:101A90001582EEE5F4E091838083108B178616861D
:101AA0001286138614861586168217821086118672
:101AB000F28BE18B1282138214821582EBE4F4E044
:101AC00091838083108B1786168612861386148660
:101AD00015861682178210861186F28BE18B128290
:101AE00013821482158240E050E0BA0188E194E04C
:101AF0000E941A0940E050E0BA0185EE93E00E948E
:101B00001A0940E050E0BA0182EB93E00E941A0902
:101B100040E050E0BA018FE793E00E941A09C3E465
:101B2000D3E08BE393E09F8F8E8F8FE393E09D8FC5
:101B30008C8F87E393E099A388A31AAE1AAA1BAAF5
:101B40001CAA1DAA80E090E0AFE7B3E48EAB9FAB88
:101B5000A8AFB9AF84E690E0A0E0B0E08EA79FA761
:101B6000A8ABB9AB198E188E81E090E09B8F8A8F5D
:101B70001BAF188219821A821B821C821D821E8250
:101B80001F82188619861A861B861C861D861E864D
:101B90001F86188A198A1A8A1B8A1C8A1D8A1E8A1D
:101BA0001F8A0E944E060EA51FA528A939A9DC018F
:101BB000CB01801B910BA20BB30B8AA39BA3ACA3FD
:101BC000BDA3DF91CF911F910F910895789484B5B3
:101BD000826084BD84B5816084BD85B5826085BD29
:101BE00085B5816085BD80916E00816080936E00B7
:101BF00010928100809181008260809381008091A9
:101C00008100816080938100809180008160809359
:101C100080008091B10084608093B1008091B00019
:101C200081608093B00080917A00846080937A0014
:101C300080917A00826080937A0080917A0081603E
:101C400080937A0080917A00806880937A00109265
:101C5000C100E0919E02F0919F0282E08083E091BA
:101C60009A02F0919B021082E0919C02F0919D02F9
:101C70008FEC80831092A602E091A202F091A30261
:101C800086E08083E091A002F091A10280818061D2
:101C90008083E091A002F091A1028081886080831E
:101CA000E091A002F091A102808180688083E091A0
:101CB000A002F091A10280818F7D80838AE08093D1
:101CC000350283E00E94DD0B85E00E94DD0B86E09B
:101CD0000E94DD0B61E083E00E944C0560E085E03E
:101CE0000E944C0586E00E94DD0B61E086E00E94C8
:101CF0004C050E9429064B015C0194EFC92EDD249E
:101D0000D394E12CF12C0E942906DC01CB01881927
:101D10009909AA09BB09883E9340A105B10558F06D
:101D200021E0C21AD108E108F10888EE880E83E0AC
:101D3000981EA11CB11CC114D104E104F10419F7CF
:101D40006EE070E080E090E00E9417111092DE01DA
:101D50001092DD0110926B0210928D0210926902B6
:101D6000C1E0C09368021092430261E082E10E94E8
:101D70004C0561E083E10E944C058091B9008E7FA3
:101D80008093B9008091B9008D7F8093B90088E479
:101D90008093B80085E48093BC0082E3C82ED12CE8
:101DA000E12CF12CC0922F03D0923003E09231034A
:101DB000F0923203C0936A0288E680938C021092FC
:101DC0006B0210928D026BE68BE293E00E94510150
:101DD00060E08BE293E00E94510181E00E94010CDF
:101DE0001092010210920202109203021092040259
:101DF0001092050210920602109207021092080239
:101E00001092090210920A0210920B0210920C0218
:101E100010920D0210920E0210920F0210921002F8
:101E200010921102109212021092130210921402D8
:101E300010921502109216021092170210921802B8
:101E40001092190210921A0210921B0210921C0298
:101E500010921D0210921E0210921F021092200278
:101E600010922D0210922E0210922F021092300228
:101E70001092290210922A0210922B0210922C0228
:101E80001092210210922202109223021092240238
:101E90001092250210922602109227021092280218
:101EA0001092E0011092DF011092E1011092E20124
:101EB0001092E3011092E4011092E8011092E70100
:101EC0001092EA011092E9011092EC011092EB01DC
:101ED0001092EE011092ED011092F0011092EF01BC
:101EE0001092F2011092F1011092F8011092F70194
:101EF0001092FC011092FB011092FA011092F9016C
:101F00001092F4011092F301109200021092F60167
:101F10001092F5011092E6011092E5011092FD0178
:101F20001092FE011092FF01C093BA04C092AC045B
:101F3000D092AD04E092AE04F092AF048091B00470
:101F40009091B104A091B204B091B304C296A11DC6
:101F5000B11D8093B4049093B504A093B604B093DC
:101F6000B70484EE96E09093B9048093B804C093CC
:101F7000A70444EF51E060E070E04093990450936F
:101F80009A0460939B0470939C0480919D049091AB
:101F90009E04A0919F04B091A0048C509E4FAF4F1F
:101FA000BF4F8093A1049093A204A093A304B09385
:101FB000A40482EA91E09093A6048093A504C093C0
:101FC000940484EC99E0A0E0B0E0809386049093C0
:101FD0008704A0938804B093890480918A04909127
:101FE0008B04A0918C04B0918D048C53964FAF4F0D
:101FF000BF4F80938E0490938F04A0939004B0936E
:10200000910486E891E09093930480939204C093A6
:1020100081048AE491E0A0E0B0E08093730490939F
:102020007404A0937504B093760480917704909122
:102030007804A0917904B0917A04865B9E4FAF4FEB
:10204000BF4F80937B0490937C04A0937D04B09356
:102050007E0486E792E09093800480937F04C0938F
:102060006E04409360045093610460936204709323
:1020700063048091640490916504A0916604B0911A
:1020800067048C509E4FAF4FBF4F8093680490936E
:102090006904A0936A04B0936B048CE992E0909376
:1020A000F4038093F303C0935B0484E690E0A0E024
:1020B000B0E080934D0490934E04A0934F04B093EE
:1020C00050048091510490915204A0915304B09116
:1020D00054048C599F4FAF4FBF4F8093550490933A
:1020E0005604A0935704B093580488E995E0909360
:1020F0005A0480935904C093F5036EE574E085EEAD
:1021000093E00E94DF08C09328046BE474E088E148
:1021100094E00E94DF08C093C2036AEA74E082EB95
:1021200093E00E94DF0867E974E082EB93E00E948D
:10213000DF0864E874E082EB93E00E94DF08C0935C
:102140008F0362EB73E08FE793E00E94DF0868E1A2
:1021500074E08FE793E00E94DF0865EE73E08FE79D
:1021600093E00E94DF080E944E06AB01BC018FE79E
:1021700093E00E94B000882321F08FE793E00E9453
:102180007D060E949400EFCF8F929F92AF92BF92F4
:10219000CF92DF92EF92FF92CF93DF93EC016881B1
:1021A00079818A819B81611571058105910521F4F1
:1021B00064E279ED8BE597E02DE133EF41E050E00B
:1021C0000E941B1249015A019B01AC01A7EAB1E42C
:1021D0000E943A126B017C01ACEEB4EFA5019401B0
:1021E0000E944812DC01CB018C0D9D1DAE1DBF1D50
:1021F000B7FF03C00197A109B04888839983AA83D8
:10220000BB83BC01CD019F77DF91CF91FF90EF9011
:10221000DF90CF90BF90AF909F908F9008950E94D5
:10222000C410089580E091E00E94C4100895609366
:1022300000017093010180930201909303010895BE
:10224000E89409C097FB3EF4909580957095619550
:102250007F4F8F4F9F4F9923A9F0F92F96E9BB2706
:102260009395F695879577956795B795F111F8CF82
:10227000FAF4BB0F11F460FF1BC06F5F7F4F8F4FED
:102280009F4F16C0882311F096E911C0772321F0E3
:102290009EE8872F762F05C0662371F096E8862F7B
:1022A00070E060E02AF09A95660F771F881FDAF7D2
:1022B000880F9695879597F908950E9470110C9450
:1022C000E1110E94D31138F00E94DA1120F0952319
:1022D00011F00C94CA110C94D01111240C94151205
:1022E0000E94F21170F3959FC1F3950F50E0551FB6
:1022F000629FF001729FBB27F00DB11D639FAA275B
:10230000F00DB11DAA1F649F6627B00DA11D661FA9
:10231000829F2227B00DA11D621F739FB00DA11DCA
:10232000621F839FA00D611D221F749F3327A00D84
:10233000611D231F849F600D211D822F762F6A2F20
:1023400011249F5750409AF0F1F088234AF0EE0F85
:10235000FF1FBB1F661F771F881F91505040A9F7B2
:102360009E3F510580F00C94CA110C9415125F3FEA
:10237000E4F3983ED4F3869577956795B795F795EE
:10238000E7959F5FC1F7FE2B880F911D9695879566
:1023900097F9089597F99F6780E870E060E00895E5
:1023A0009FEF80EC089500240A941616170618066D
:1023B0000906089500240A94121613061406050649
:1023C0000895092E0394000C11F4882352F0BB0FDA
:1023D00040F4BF2B11F460FF04C06F5F7F4F8F4F3D
:1023E0009F4F089557FD9058440F551F59F05F3F78
:1023F00071F04795880F97FB991F61F09F3F79F027
:1024000087950895121613061406551FF2CF4695A8
:10241000F1DF08C0161617061806991FF1CF86952A
:102420007105610508940895E894BB27662777270E
:10243000CB0197F90895052E97FB1EF400940E9496
:10244000321257FD07D00E944D1207FC03D04EF404
:102450000C94321250954095309521953F4F4F4F37
:102460005F4F089590958095709561957F4F8F4F40
:102470009F4F08950E946F12A59F900DB49F900DDD
:10248000A49F800D911D11240895B7FF0C943A125A
:102490000E943A12821B930B0895A1E21A2EAA1BE6
:1024A000BB1BFD010DC0AA1FBB1FEE1FFF1FA21704
:1024B000B307E407F50720F0A21BB30BE40BF50B01
:1024C000661F771F881F991F1A9469F7609570958A
:1024D000809590959B01AC01BD01CF010895A29F0D
:1024E000B001B39FC001A39F700D811D1124911DE8
:1024F000B29F700D811D1124911D08955058BB2766
:10250000AA270E9496120C94E1110E94D31138F070
:102510000E94DA1120F039F49F3F19F426F40C944C
:10252000D0110EF4E095E7FB0C94CA11E92F0E943C
:10253000F21158F3BA17620773078407950720F062
:1025400079F4A6F50C9414120EF4E0950B2EBA2F24
:10255000A02D0B01B90190010C01CA01A0011124A9
:10256000FF27591B99F0593F50F4503E68F11A1655
:10257000F040A22F232F342F4427585FF3CF4695E6
:1025800037952795A795F0405395C9F77EF41F1608
:10259000BA0B620B730B840BBAF09150A1F0FF0FD2
:1025A000BB1F661F771F881FC2F70EC0BA0F621FBE
:1025B000731F841F48F4879577956795B795F795AE
:1025C0009E3F08F0B0CF9395880F08F09927EE0F43
:1025D0009795879508950E94FF120C94E1110E942F
:1025E000DA1158F00E94D31140F029F45F3F29F02E
:1025F0000C94CA1151110C9415120C94D0110E9414
:10260000F21168F39923B1F3552391F3951B550B00
:10261000BB27AA2762177307840738F09F5F5F4FB5
:10262000220F331F441FAA1FA9F335D00E2E3AF0F4
:10263000E0E832D091505040E695001CCAF72BD00C
:10264000FE2F29D0660F771F881FBB1F261737075D
:102650004807AB07B0E809F0BB0B802DBF01FF278F
:1026600093585F4F3AF09E3F510578F00C94CA1191
:102670000C9415125F3FE4F3983ED4F3869577955A
:102680006795B795F7959F5FC9F7880F911D969548
:10269000879597F90895E1E0660F771F881FBB1FA4
:1026A000621773078407BA0720F0621B730B840B51
:1026B000BA0BEE1F88F7E09508950E94FA1158F1C1
:1026C0009E5760F19851A0F0E9F0983020F5092E5E
:1026D0009927660F771F881F991F0A94D1F712C098
:1026E000062E672F782F8827985F11F4000C07C0FB
:1026F000993FB4F38695779567959395D9F7611DC2
:10270000711D811D3EF490958095709561957F4F68
:102710008F4F9F4F089568940C9415120C941412C7
:1027200019F416F40C94D0110C94D6130E94FA11DB
:10273000B8F39923C9F3B6F39F57550B87FF0E944F
:10274000E4130024A0E640EA90018058569597953E
:1027500028F4805C660F771F881F20F02617370744
:10276000480730F4621B730B840B202931294A2B54
:10277000A69517940794202531254A2758F7660F08
:10278000771F881F20F026173707480730F4620BA1
:10279000730B840B200D311D411DA09581F7B901EC
:1027A000842F9158880F9695879508959F3F31F013
:1027B000915020F4879577956795B795880F911D6F
:1027C0009695879597F9089591505040660F771F19
:1027D000881FD2F70895EE0FFF1F0590F491E02DAA
:1027E0000994CF93DF938230910510F482E090E05A
:1027F000E091BF04F091C00420E030E0C0E0D0E000
:10280000309711F14081518148175907C0F048179E
:10281000590761F482819381209719F09B838A8301
:102820002BC09093C0048093BF0426C021153105AE
:1028300019F04217530718F49A01BE01DF01EF01A6
:102840000280F381E02DDCCF2115310509F1281B31
:10285000390B2430310590F412968D919C91139789
:102860006115710521F0FB019383828304C090936D
:10287000C0048093BF04FD01329644C0FD01E20F05
:10288000F31F81939193225031092D933C933AC0C9
:102890002091BD043091BE04232B41F42091060108
:1028A000309107013093BE042093BD0420910401B0
:1028B000309105012115310541F42DB73EB7409106
:1028C000080150910901241B350BE091BD04F091E2
:1028D000BE04E217F307A0F42E1B3F0B281739079D
:1028E00078F0AC014E5F5F4F2417350748F04E0F6C
:1028F0005F1F5093BE044093BD048193919302C027
:10290000E0E0F0E0CF01DF91CF9108950F931F93A6
:10291000CF93DF93009709F48CC0FC0132971382A8
:1029200012820091BF041091C0040115110581F4B9
:1029300020813181820F931F2091BD043091BE040C
:102940002817390779F5F093BE04E093BD0471C0F0
:10295000D80140E050E0AE17BF0750F412962D9119
:102960003C911397AD012115310509F1D901F3CF40
:102970009D01DA013383228360817181860F971F65
:102980008217930769F4EC0128813981260F371FDC
:102990002E5F3F4F318320838A819B819383828383
:1029A000452B29F4F093C004E093BF0442C0139672
:1029B000FC93EE931297ED01499159919E01240FDA
:1029C000351FE217F30771F480819181840F951F01
:1029D000029611969C938E938281938113969C9379
:1029E0008E931297E0E0F0E0D80112968D919C91C1
:1029F0001397009719F0F8018C01F6CF8D919C91F7
:102A000098012E5F3F4F820F931F2091BD0430919C
:102A1000BE042817390769F4309729F41092C004CE
:102A20001092BF0402C0138212821093BE0400935E
:102A3000BD04DF91CF911F910F91089581E090E047
:0A2A4000F8940C942315F894FFCFCE
:102A4A00010000000000C1048000000000009E0098
:102A5A00B0007D0600000000E70A750AA00A2E0BE6
:102A6A00D10AAF0AC30A0000000051012101810105
:102A7A00F50019010501F600000000009E00B000F3
:102A8A005A06207C207841537261772D3E00207CC3
:102A9A00207941537261772D3E00207C207A415380
:0A2AAA007261772D3E000D0A000056
:00000001FF
